:10000000000080312928FF3F80312100911E1828EF
:100010002000911E1828911223009D1C12281D12E9
:100020009D101D161908F600760884319924803138
:100030002000111C09002100111C0900640020008F
:1000400011103C309700B0309600DD0A0319DE0A2B
:100050000900880188311B28AA0093218031003AC9
:10006000031D0134BE30B3208031003A031D01343A
:100070002A0803195328AB012B08D33E86008701B9
:100080005B2080318100AB0A09302B02031C3C2825
:100090000830A000A101D3308720803121005B0609
:1000A000031D033400345B2080312100D3005B202A
:1000B0002100D40000342000A201A3018B132100F1
:1000C0008D1022008D10642821008D146728640093
:1000D000003020008D180130A1008B171330A000D4
:1000E000A00B7028732820002108031980280130F4
:1000F000A000230A7C28A035890B7B282008A204B5
:10010000A30A08302302031C5E2822080800A3006B
:10011000A901A601A70121082706031D912820088F
:1001200026060319B12826082307A20086008701A6
:100130000108A5000830A40029082506A800013000
:10014000A805280BA5281830A906A936A913280B3D
:10015000AA28A917A536A40B9C28A60A0319A70A42
:100160008B2829080800A40093218031003A031D40
:100170000134CC30BF2080312408BF200034A100DE
:10018000A3012108A000230AC628A036890BC52890
:100190002008A2000130A2058B1321008D1022003F
:1001A0008D10D22820002203031DD82821008D1491
:1001B00018302000A000A00BDB28DE2821008D14C1
:1001C0008B172000A30A0830230203180800C12857
:1001D0003E218031C52180311B2180317C2180313D
:1001E0000A30AD00F428AD03AD080319FD289321B2
:1001F00080310038031DF328E614AD08031D0D29D6
:10020000E610C421803120006414E4106411E7304A
:10021000E4056030E404E4130C223230A000A101B4
:100220008B31132380318831F320FA302000A00075
:10023000A1018B31132B03302F00920098019901FB
:100240009A019A16981699151A14181798159A174C
:100250001A170F309100A001A101A201A301A4016E
:10026000A501A601A701A801A901AA01AB01A0301F
:100270009300303095009401911708003F30210021
:100280009E0023008C018D018F01900122008F12AE
:1002900021008F120F1695138D1724008D17220041
:1002A0000C128C1121000C128C110D153B3020000A
:1002B0009C00E3309B001C11210091102000911044
:1002C000703098003C309700B03096001814210030
:1002D00011142000111021008E170E172630230054
:1002E0009E0090309D0019309B0021009116200047
:1002F00091120B178B17080032302000D500D60161
:100300000330E1006730A0009130A100C4308E318D
:10031000372680314E30A0009130A100B5308E31AB
:100320003726F9010800A201A20A0530A100A103A5
:100330002108FF3A0319C22921008D1022008D10D7
:100340009F302000A000A00BA329A62921008D1416
:100350008B1318302000A000A00BAC29AF2900306F
:1003600020008D180130A2008B179F30A000A00B39
:10037000B729BA2920008D18BF29A201A20AA20814
:10038000031D972922080800E62AD621803100386B
:10039000031DCD29E801E80AED22E601DD01DE01B9
:1003A0007030DB001730DC00E9010800A7012708E6
:1003B000673E8600870127088D31F925803181004D
:1003C0002000A70A02302702031CD729A001A00A97
:1003D000A1016830F3218031A700A70A670827062A
:1003E000031901340034A400A501A6012608A200C7
:1003F000A30121082302031DFF292008220203185C
:100400000A2A26082407A200860087010108A507FA
:10041000A60AF629250808000230A300A401A303B8
:100420002308FF3A0319302A9F22803190306A2234
:1004300080318B228031003A031D0F2A01306A225D
:1004400080318B228031003A031D0F2A64086A2212
:1004500080318B228031003A031D0F2AA401A40AA7
:10046000DC22200024080800A3000230A400A5011B
:10047000A4032408FF3A0319662A9F228031903092
:100480006A2280318B228031003A031D382A2308EA
:100490006A2280318B228031003A031D382A9F2244
:1004A000803191306A2280318B228031003A031DE5
:1004B000382AA9228031E000C9228031A922803166
:1004C000DF00D52280312000A501A50ADC22200012
:1004D000250808002000A000A20122008F132000A0
:1004E0002008A1008030A105A108031D7A2A22005E
:1004F0000F137C2A22000F172000A0356400220071
:100500008F1764002000A20A08302202031C6D2A03
:1005100022008F13080021000F1722008F136400A0
:1005200022008F176400003020000F1B0130A00054
:1005300022008F1321000F13200020080800220042
:100540000F178F17640022000F13640022008F130F
:10055000080021000F17640022008F132000A00163
:10056000A101640022008F1764002000A0350F1B3A
:100570002014640022008F1364002000A10A0830B8
:100580002102031CB12A21000F136400200020085F
:10059000080022000F13640022008F17640022005D
:1005A0008F13640022000F17080022008F170F1707
:1005B000640022008F13080022008F130F136400C1
:1005C00022008F17640022000F17080021008F13EC
:1005D0000F1322008F170F170800A001A00AA10116
:1005E0006830F321E700E70AA7012708673E860085
:1005F00087010108A00027088F31062780312000DD
:10060000A70A0230270203180800F52A8D1B0800EC
:100610001A30CA00F830C900C90B0C2BCA0B0C2BBE
:10062000640020008D1B080000305123963020000C
:10063000A000A1018B311323833101305123883174
:10064000F320833120005808F03A5704031D312B62
:1006500022000C128C152000E301E30A672383318A
:10066000432BE3018E317226833120006308031986
:100670003D2B22000C128C152E2B22000C168C11F7
:10068000023051238331200063080319432B1430B7
:10069000A000A1018B3113238331083022008C0686
:1006A000432B2000A000A008031D5B2BFF30EA00B5
:1006B000EB00EC00872B200B612BEA01EB01EC0136
:1006C0005A2B2008023A031D08007730572B2F00C1
:1006D000121E672BA011121E6B2BA1117930200066
:1006E000EA000A30A00063088F31912783319024FB
:1006F0000A30A00063088F31C4278331013E840093
:1007000090300318013E85000008EC00872B200084
:100710006A1C8F2B2F00121E8A2BA016932B2F00E2
:10072000121E8F2BA0122000EA1C9B2B2F00121EE2
:10073000962BA3169F2B2F00121E9B2BA31220007B
:100740006A1DA72B2F00121EA22BA616AB2B2F0063
:10075000121EA72BA6122000EA1DB32B2F00121E7B
:10076000AE2BA916B72B2F00121EB32BA9122000F7
:100770006A1EBF2B2F00121EBA2BAB16C32B2F00E5
:10078000121EBF2BAB122000EA1ECB2B2F00121E15
:10079000C62BA516CF2B2F00121ECB2BA512200087
:1007A0006A1FD72B2F00121ED22BA816DB2B2F006F
:1007B000121ED72BA81220006B1CE32B2F00121E39
:1007C000DE2B2214E72B2F00121EE32B2210200019
:1007D000EB1CEF2B2F00121EEA2B2514F32B2F00FE
:1007E000121EEF2B251020006B1DFB2B2F00121E5D
:1007F000F62B2814FF2B2F00121EFB2B2810200095
:10080000EB1D072C2F00121E022C2B140B2C2F007B
:10081000121E072C2B1020006B1E132C2F00121EF3
:100820000E2CAA15172C2F00121E132CAA11200013
:10083000EB1E1F2C2F00121E1A2CA415232C2F0088
:10084000121E1F2CA41120006B1F2B2C2F00121E18
:10085000262CA7152F2C2F00121E2B2CA7112000A1
:10086000EB1F372C2F00121E322C29173B2C2F0088
:10087000121E372C291320006C1C432C2F00121E33
:100880003E2CA217472C2F00121E432CA21320002F
:10089000EC1C4F2C2F00121E4A2CA517532C2F0096
:1008A000121E4F2CA51320006C1D5B2C2F00121E56
:1008B000562CA8175F2C2F00121E5B2CA8132000AB
:1008C000EC1D672C2F00121E622CAB176B2C2F0017
:1008D000121E672CAB1320006C1E732C2F00121EEF
:1008E0006E2CA915772C2F00121E732CA911200035
:1008F000EC1E7F2C2F00121E7A2CA315832C2F00A8
:10090000121E7F2CA31120006C1F8B2C2F00121E97
:10091000862CA61508002F00121E8B2CA61108008D
:10092000013E840090300318013E85000008EB0072
:100930000800F500FA18080079080319A62C7508B4
:100940007906031DA62CFB01362508007A1CB32C62
:100950007508CD248431031CAF2CFB01B02C362547
:100960007A1DFB0108007508BF248431031C0800B0
:100970007A147508CD2484310318A32CA42CF1001B
:10098000F0017F3071020318CB2C21307102031C5F
:10099000CB2CF001F00A700C0800F2007B085A3EE4
:1009A000F300213003182230F40073088600740825
:1009B000870072088100FB0A96307B020800B301B1
:1009C000B301FA107A105E08D4005D08D300FB0171
:1009D0007A1536255A30AD002130AE00C430AF0054
:1009E000B0018B31272384312E08B5002D08B400C7
:1009F00035040319FE2CB301B30A112D5A30AD0092
:100A00002130AE00B530AF00B0018B3127238431E7
:100A10002E08B5002D08B40035040319132D02303B
:100A2000B300FA14202D53085D02B10054085E3B58
:100A3000B2005602031D1E2D310855020318EA2C80
:100A40007A116730A0009130A100C4308E31372672
:100A500084314E30A0009130A100B5308E31372660
:100A6000F9013230D500D601330808007B085A3E20
:100A700086002130031822308700810108002608F3
:100A80008600270887000108203A031D4B2DA60A7F
:100A90000319A70A3F2D26088600270887000108AA
:100AA000093A0319472DAD01AE01AC0126088600B5
:100AB0002708870001082D3A031D602DAC0A8D2DF3
:100AC000260886002708870001082B3A03198D2D78
:100AD00026088600270887000108A5258531031C04
:100AE000912D26088600270887000108A800A90183
:100AF0002E08A1002D08A0000A30A200A301B325F2
:100B0000853128082007AA002908213DAB002A08C2
:100B1000D03EAD00FF302B3DAE00A60A0319A70A58
:100B2000682D2C080319A02D2D09A8002E09A90055
:100B3000A80A0319A90A2808A6002908A70008007E
:100B40002E08A7002D08A6000800A100A0013A3039
:100B500021020318B12D30302102031CB12DA00158
:100B6000A00A200C0800A401A501201CBB2D22080E
:100B7000A4072308A53DA235A30DA136A00C21088A
:100B80002004031DB52D2508A1002408A00008009D
:100B90006400800101310130FE020030FF3B7F081C
:100BA0007E0403190034C92DFF3FFF3FFF3FFF3F85
:10103000FF3FFF3FFF3F5A3084002130850096304C
:10104000FE000030FF018531C8258831F701F80125
:10105000F901FA01FB014F308400003085001B309C
:10106000FE000030FF008531C8258831A0308400A3
:10107000003085003C30FE000030FF008531C8257F
:10108000883120308400013085001830FE000030A7
:10109000FF008531C82588314030EA00EB00EC00C4
:1010A000ED00EE00EF00200055288031E820883167
:1010B000FA30A000A101132366158331062388317D
:1010C000F320883172268831200066115E08DA002C
:1010D0005D08D90020000D1980281A30CC00F830A6
:1010E000CB00CB0B7128CC0B7128640020000D19AC
:1010F00080286614F320883172268831200066101B
:1011000077085D02CB0078085E3BCC0000304C02D3
:10111000153003194B02031C9A285E08F8005D087D
:10112000F7002F00121E91280830A006121E9628E4
:101130000830A106200059085D02CB005A085E3B2A
:10114000CC005C02031DA6284B085B020318EE28A6
:101150005E08DA005D08D900F3208831200065358B
:10116000203E8600013087005708C03F5808C13F25
:10117000E50A0C306502031CEE2872268831200037
:10118000E50163080319EB286908FF3A031DC92824
:10119000E9010C30A00069082B268831CD00103001
:1011A000CD07CE014E08203E8600013087000108A1
:1011B000A0004D084E07062788312000CE0A1830BF
:1011C0004E02031CD228E90A0A306902031CEE28E9
:1011D000E615E901EE28FF30E900E6112F00911E27
:1011E0006A2891126A282000E61C1D290530AC00EF
:1011F000AC0803191629F2278831003A031903298C
:101200002000AC03F8283230A000A10113230130E4
:1012100080312C2088310038031D0029210053081B
:101220002000D700210054082000D800AC08031D7E
:101230003C29D701F030D8003C29E41782310C2238
:101240008831013A031D19291930A000A101132387
:101250000030823134228831013A031D1929600897
:10126000D8005F08D700D70ED80E0F30D705580822
:10127000F039D7040F30D805B42EE301A921883105
:10128000630803194F29B830A0000B30A1001323C5
:101290008831E301A92188316308031D08006B3000
:1012A000B1009030B200A1228831013A03195B29C4
:1012B0002330E3000800E101E10AB030D50004303A
:1012C000D6004730B1009030B200A1228831013AF7
:1012D00003196D292430E30008003230A000A10179
:1012E0001323883162238831C600460303197A2903
:1012F00066160800CC30B1009030B200A1228831CF
:101300002330B1009030B200A1228831C030B1004A
:101310009030B200A1228831C701EF30B100903087
:10132000B200A12288313230A000A10113238831FC
:10133000E430B1009030B200A12288313230A000F8
:10134000A10113238831C70A64304702031808003B
:101350008D29E22788316330B1009130B200A1229B
:101360008831013A0319B7290330E30008004230FD
:10137000B1009130B200A1228831013A0319C3298A
:101380000C30E30008000A30C000C0080319D82957
:101390002A30B1009130B200A1228831013A0319FC
:1013A000D8299630A000A10113238831C003C52994
:1013B000C008031DDE290430E30008000A30C00025
:1013C000E729C0039630A000A10113238831C0088B
:1013D0000319202A0530B1009130B200A1228831D2
:1013E000013A031DE7295A30AD002130AE005E30CE
:1013F000AF009130B000272388312E08BF002D08A0
:10140000BE003F040319E129BD013D08A03E86004E
:1014100087013D08B900BA013E07BB003A083F3DCD
:10142000BC003B08053E840000303C3D85000008C0
:101430008100BD0A0F303D02031C052A2100AF01C7
:1014400064302000C000FF30E200C0080319622AA7
:101450003330B1009130B200A1228831013A031D2E
:10146000252A5A30AD002130AE004830AF0091300F
:10147000B000272388312E08BF002D08BE003F048E
:1014800003195B2A3E08053EB90000303F3DBA0013
:101490003908A6003A08A70085313F25883126087B
:1014A000E200A92788312000620803195B2A62083C
:1014B000633A031D622AC0039630A000A1011323E2
:1014C0008831252AC008031D6C2A6208FF3A0319D7
:1014D0006C2A0F30E3000800D830B1009030B20021
:1014E000A12288311430C000C00803199B2AE430BF
:1014F000B1009030B200A1228831013A0319832A49
:101500001030E30008005A30AD002130AE00FA3050
:10151000AF009030B000272388312E08BF002D087F
:10152000BE003F04031D9B2A9630A000A101132397
:101530008831C003742AC008031D08000530E30089
:101540000800B601B7016108B500B801B508031974
:10155000FE2A3208A2003108A1001A2688316A301A
:10156000A1009130A2001A26FA107A105E08D40069
:101570005D08D300FB017A158531362588315A3054
:10158000AD002130AE00C430AF00B0012723883158
:101590002E08B7002D08B60037040319D22AB80167
:1015A000B80AE42A5A30AD002130AE00B530AF00A1
:1015B000B001272388312E08B7002D08B600370464
:1015C0000319E62A0230B800FA14F32A53085D0220
:1015D000B30054085E3BB4005602031DF12A3308E1
:1015E00055020318BF2A7A11380BF72AFE2A6430F5
:1015F000A000A10113238831B503A62A6730A000FB
:101600009130A100C430372688314E30A00091308F
:10161000A100B5303726F9010330E1003230D500A2
:10162000D6013808080001302000A0020030A13B9C
:10163000200A0319210A031908001A30A300F83000
:10164000A200A20B212BA30B212B6400132B542BE4
:101650002E08A7002D08A6003008A9002F08A80012
:101660003008A1002F08A000222788312108AB00F4
:101670002008AA00412788312708260403190800FA
:101680002E08A1002D08A000A00A0319A10A2F0806
:101690008400300885000008A200A3017927883162
:1016A0002108AE002008AD002E082D0403195F2B81
:1016B0002D0886002E0887008108031D282BAD0108
:1016C000AE010800B601B60AB701B6080319892DA4
:1016D000661DAC2B9330A1009030A2001A268831F1
:1016E0000F30A3009130A400AA258831A030A300B8
:1016F000A401AA25883123308B2588312000E808F1
:10170000031D862B5930A3009130892B5430A30040
:101710009130A400AA2588315808A1005708A000DC
:10172000BA258831B801B901200038084F3E86003B
:10173000870101088B2588312000B80A0319B90AEE
:101740003908803AFE0080307E02031DA92B043048
:10175000380203185B2D942B661CF02B9330A100EC
:101760009030A2001A2688312130A3009130A400C5
:10177000AA258831A030A300A401AA2588312330EE
:101780008B2588312000E808031DCA2B5930A3009F
:101790009130CD2B5430A3009130A400AA2588317C
:1017A0005808A1005708A000BA258831BA01BB012A
:1017B00020003A084F3E8600870101088B258831BA
:1017C0002000BA0A0319BB0A3B08803AFE008030A9
:1017D0007E02031DED2B04303A0203185B2DD82B3B
:1017E0006908FF3A0319592CE61DFA2B8230A10033
:1017F00090305C2CB330A1009030A2001A268831C2
:101800001C30BE00BF01C5016908450203180E2C3B
:101810003C30BE070318BF0AC50A042C3B30BE0784
:101820000318BF0A6430A000A1013F08A3003E08CE
:10183000A2004D26883121082004643003192D2C84
:10184000A000A1013F08A3003E08A2004D26883158
:101850002008303E1026883164302000A000A1010D
:101860003F08A3003E08A200942688312108BF004B
:101870002008BE000A30A000A1013F08A3003E08D6
:10188000A2004D2688312008303E102688310A30CB
:101890002000A000A1013F08A3003E08A20094265A
:1018A00088312008303E102688312C3010268831AF
:1018B0005F2CA330A1009030A2001A268831183086
:1018C0002000A3009130A400AA258831A030A300F5
:1018D000A401AA25883123308B2588312000E8080F
:1018E000031D762C5930A3009130792C5430A3007D
:1018F0009130A400AA2588316908FF3A0319272DE1
:10190000E61DF12C6908FF3EC5000A3045020318A8
:10191000BA2CC3010C30A00045082B268831C20028
:101920001030C2074335C2074208F925883120002C
:10193000C000420AF92588312000C100A1004008FA
:10194000A000BA258831C40144084F3E86008701B3
:1019500001088B2588312000C40A04304402031C8E
:10196000A42C7C308B258831FB278831031C8A2CE2
:10197000C503852C0930C500450869020318272DC9
:10198000C3010C30A00045082B268831C20010305E
:10199000C2074335C2074208F92588312000C0003C
:1019A000420AF92588312000C100A1004008A000AA
:1019B000BA258831C40144084F3E860087010108DA
:1019C0008B2588312000C40A04304402031CDB2C20
:1019D0007C308B258831FB278831031CC12CC50343
:1019E000BC2CC501690845020318272DC3010C3022
:1019F000A00045082B268831C2001030C2074335AD
:101A0000C2074208F92588312000C000420AF925A2
:101A100088312000C100A1004008A000BA2588310B
:101A2000C40144084F3E8600870101088B25883198
:101A30002000C40A04304402031C112D7C308B2585
:101A40008831FB278831031CF72CC50AF22CC5010D
:101A50000C30450203185B2D4535203E86000130D1
:101A60008700403FA000413FA100BA258831BC015A
:101A7000BD0120003C084F3E8600870101088B25F0
:101A800088312000BC0A0319BD0A3D08803AFE00D7
:101A900080307E02031D4E2D04303C02031C392D84
:101AA000200045080B3A0319582D7C308B258831CE
:101AB0002000C50A282D23308B25883140308B2506
:101AC000883190302000D5000130D6003B30A00096
:101AD0009130A100C430372688314E30A0009130BB
:101AE000A100B530372688312B30F9006A30A100CB
:101AF0009130A2001A268431DF248831B7003708DC
:101B0000031D892D6430A000A10113238831B60381
:101B1000652B370808002000A100210E0F39A20014
:101B20000A302202031C962D3730972D3030A20741
:101B300022081026883120002108A2000F30A205BB
:101B40000A302202031CA62D3730A72D3030A20701
:101B50002208102E23088400240885000008A50010
:101B6000A508031908008B2588312000A30A031952
:101B7000A40AAA2D210E0F39A2000A302202031C4A
:101B8000C52DF630A2074130C62D3030A2072208FD
:101B9000CF002108A2000F30A2050A302202031C48
:101BA000D52DF630A2074130D62D3030A2072208BD
:101BB000D000200E0F39A2000A302202031CE42DAF
:101BC000F630A2074130E52D3030A2072208D100BF
:101BD0002008A2000F30A2050A302202031CF72DB4
:101BE000F630A2074130A2072208D20008003030A8
:101BF000F32DA200640023009518FA2D200022087E
:101C0000230091003F309505151403101518031497
:101C10000030093D2000A000A101230013080800A6
:101C20002000A00023009E1C122E2000200823006C
:101C30009A00080021088400220885000008A300FB
:101C4000A308031908002308102688312000A10AE0
:101C50000319A20A1A2EA200A10120082218A10726
:101C6000A035A236A208031D2D2E21080800A400CD
:101C7000A500250886008701A50A2108A3002008E1
:101C8000A200A00A0319A10A840023088500000805
:101C9000C03F890803190800392EA501A6012108B3
:101CA000200403196D2EA401A40AA11B5A2EA035ED
:101CB000A10D542EA535A60D21082302031D622E69
:101CC00020082202031C692E2008A2022108A33B3F
:101CD0002514A136A00CA40B5A2E2608A100250815
:101CE000A00008002000661C772EDC278831023017
:101CF0002000C800852EC803B4268831B8302000E3
:101D0000A0000B30A10013238831C80803198E2EC0
:101D1000E30166123D218831661A7B2E63080319A0
:101D2000932E8331672BB42E210820040319AF2E84
:101D3000A401A40AA11B9F2EA035A10D992E210854
:101D40002302031DA52E20082202031CAB2E20080F
:101D5000A2022108A33BA136A00CA40B9F2E2308AE
:101D6000A1002208A00008005808F03A5704031DFB
:101D7000C72E7930EA003F30EB000630EC002F0030
:101D8000121EBF2EA011121EC32EA111042F2F0050
:101D9000121EC72EA015121ECB2EA115200058080A
:101DA000A6005708A5000430A636A50C890BD42E32
:101DB0002508A7005708A8000F30A8052808133EDB
:101DC000840090300318013E85000008A8000A3006
:101DD000A000270891278831013E84009030031825
:101DE000013E85000008EA000A30A0002708C42749
:101DF00084319024EB172808013E840090300318AA
:101E0000013E85000008EC008331872BA1002300F0
:101E10009518072F2000210823009100200020089A
:101E2000230093003F30950503108B1B03148B1385
:101E3000151555309600AA30960095141511031803
:101E40008B1708002108A5002008A4002508A3007E
:101E50002408A200A40A0319A50A84002308850007
:101E600000080038031D262F20082402A2002108A4
:101E7000253BA3002208FF3EA000FF30233DA10028
:101E800008000130AA020030AB3B2A0A03192B0AD2
:101E90000319762F26088600270887000108003AD4
:101EA0000319602F28088400290885000008AC0069
:101EB000260886002708870001082C0603196F2FC3
:101EC000260886002708870028088400290885003E
:101ED00000080102A600A701031CA7030800A60A28
:101EE0000319A70AA80A0319A90A412FA601A701E5
:101EF000080020088600210887000108220603192F
:101F000008002108A5002008A400A00A0319A10ABE
:101F10008600250887008108031D792FA001A101F3
:101F20000800A100A30120080319A72FA201A20AFB
:101F3000A01B9C2FA035972FA33520082102031C3E
:101F4000A42F2008A1022314A036A20B9C2F230843
:101F500008000A30A000620891278831A5000A30E5
:101F6000A0006208C427A6007330EA002508843167
:101F700090242608013E840090300318013E85001D
:101F80000008EC008331872BA2000830A300A401D5
:101F90002208A1000730A136890BCB2F243521045C
:101FA000A400A23520082402031CD82F2008A40274
:101FB000A30BC82F240808004030EA00EB00EC0017
:101FC0008331872B22008F1605302000A000A1014D
:101FD0001323883122008F12F4302000A00001303A
:101FE000A100132B813193218831003A031D013464
:101FF00044308031B3282000C30A0C30430208006B
:1020000000343F3406345B344F3466346D347D34F1
:1020100007347F346F3477347C3439345E34793428
:102020007134503440340034013401340234033408
:1020300003340434043405340634063407340834D5
:10204000083409340934413454342B344334503483
:1020500053344D3453343D3431342C342C342C34FB
:10206000223431343134313430343034303430345B
:10207000303422342C34223431343134313430345D
:10208000303430343034303422340034003441348D
:1020900054342B344E3453344F3443344F343D3462
:1020A00032342C3422347734773477342E34773406
:1020B0006C34773464346A34633479342E34633462
:1020C0006F346D3422342C34313432343134323480
:1020D000393400340034413454342B344E345334C6
:1020E0004F34433452343D345334543452344534F1
:1020F00041344D342C3436342C3430342C34313497
:1021000000340034413454342B344E3453344F347F
:10211000533444343D3432342C3436343834373448
:102120002C3400340034413454342B344E34533482
:102130004F34533444343D3432342C343334323419
:102140002C3400340034413454342B344E34533462
:102150004F34533444343D3432342C3438343734EF
:102160002C3400340034413454342B344E34533442
:102170004F34533444343D3432342C34003400343E
:10218000413454342B344E34503453344D3452345F
:102190003D34313400340034413454342B344E3423
:1021A00053344F3443344C343D34323400340034EF
:1021B000413454342B344334453452344534473459
:1021C0003D34343400340034413454342B344334FB
:1021D00045345234453447343F34003400344134BC
:1021E00054342B344E34503453344D3452343F3401
:1021F000003400342B3443344534523445344734AE
:102200003A3434342C3431340034413454342B34A3
:102210004E3443344334493444340034003440347D
:102220002334703474342334313423340034003490
:10223000403423347034743423343234233400343F
:10224000003440342334703474342334333423342E
:1022500000340034413454342B34433449344D3445
:10226000493400340034413454342B34433453342F
:102270005134003400344E3453344F344E344D34E2
:10228000493400344134543445343134003400345A
:102290002B344334533451343A34003445345234BB
:1022A00052344F3452340034313430342334003417
:1022B0000034363430342334003400343834393484
:1022C00038343634003441345434003400344F341C
:1022D0004B3400340D3400340034FF3FFF3FFF3FE8
:020000040001F9
:04000E005AFEFCFE9C
:00000001FF
