:1000000080312928FF3FFF3F80312100911E1828B1
:100010002000911E1828911223009D1C12281D12E9
:100020009D101D161908F600760884319924803138
:100030002000111C09002100111C0900640020008F
:1000400011103C309700B0309600DC0A0319DD0A2D
:100050000900880188311C28AA0093218031003AC8
:10006000031D0134BE30B3208031003A031D01343A
:100070002A0803195328AB012B08D33E86008701B9
:100080005B2080318100AB0A09302B02031C3C2825
:100090000830A000A101D3308720803121005B0609
:1000A000031D033400345B2080312100D3005B202A
:1000B0002100D40000342000A201A3018B132100F1
:1000C0008D1022008D10642821008D146728640093
:1000D000003020008D180130A1008B171330A000D4
:1000E000A00B7028732820002108031980280130F4
:1000F000A000230A7C28A035890B7B282008A204B5
:10010000A30A08302302031C5E2822080800A3006B
:10011000A901A601A70121082706031D912820088F
:1001200026060319B12826082307A20086008701A6
:100130000108A5000830A40029082506A800013000
:10014000A805280BA5281830A906A936A913280B3D
:10015000AA28A917A536A40B9C28A60A0319A70A42
:100160008B2829080800A40093218031003A031D40
:100170000134CC30BF2080312408BF200034A100DE
:10018000A3012108A000230AC628A036890BC52890
:100190002008A2000130A2058B1321008D1022003F
:1001A0008D10D22820002203031DD82821008D1491
:1001B00018302000A000A00BDB28DE2821008D14C1
:1001C0008B172000A30A0830230203180800C12857
:1001D0003E218031C52180311B2180317C2180313D
:1001E0000A30AD00F428AD03AD080319FD289321B2
:1001F00080310038031DF328E514AD08031D0D29D7
:10020000E510C421803120006314E3106311E7304E
:10021000E3056030E304E3130C223230A000A101B7
:100220008B31082380318831F420FA302000A0007F
:10023000A1018B31082B03302F0092009801990106
:100240009A019A16981699151A14181798159A174C
:100250001A170F309100A001A101A201A301A4016E
:10026000A501A601A701A801A901AA01AB01A0301F
:100270009300303095009401911708003F30210021
:100280009E0023008C018D018F01900122008F12AE
:1002900021008F120F1695138D1724008D17220041
:1002A0000C128C1121000C128C110D153B3020000A
:1002B0009C00E3309B001C11210091102000911044
:1002C000703098003C309700B03096001814210030
:1002D00011142000111021008E170E172630230054
:1002E0009E0090309D0019309B0021009116200047
:1002F00091120B178B17080032302000D400D50163
:100300000330E0006330A0009130A100C4308E3192
:100310002C2680314A30A0009130A100B5308E31BA
:100320002C26F9010800A201A20A0530A100A103B0
:100330002108FF3A0319C22921008D1022008D10D7
:100340009F302000A000A00BA329A62921008D1416
:100350008B1318302000A000A00BAC29AF2900306F
:1003600020008D180130A2008B179F30A000A00B39
:10037000B729BA2920008D18BF29A201A20AA20814
:10038000031D972922080800E62AD621803100386B
:10039000031DCD29E701E70AED22E501DC01DD01BE
:1003A0007030DA001730DB00E8010800A7012708E9
:1003B000663E8600870127088D31EE258031810059
:1003C0002000A70A02302702031CD729A001A00A97
:1003D000A1016730F3218031A700A70A660827062C
:1003E000031901340034A400A501A6012608A200C7
:1003F000A30121082302031DFF292008220203185C
:100400000A2A26082407A200860087010108A507FA
:10041000A60AF629250808000230A300A401A303B8
:100420002308FF3A0319302A9F22803190306A2234
:1004300080318B228031003A031D0F2A01306A225D
:1004400080318B228031003A031D0F2A63086A2213
:1004500080318B228031003A031D0F2AA401A40AA7
:10046000DC22200024080800A3000230A400A5011B
:10047000A4032408FF3A0319662A9F228031903092
:100480006A2280318B228031003A031D382A2308EA
:100490006A2280318B228031003A031D382A9F2244
:1004A000803191306A2280318B228031003A031DE5
:1004B000382AA9228031DF00C9228031A922803167
:1004C000DE00D52280312000A501A50ADC22200013
:1004D000250808002000A000A20122008F132000A0
:1004E0002008A1008030A105A108031D7A2A22005E
:1004F0000F137C2A22000F172000A0356400220071
:100500008F1764002000A20A08302202031C6D2A03
:1005100022008F13080021000F1722008F136400A0
:1005200022008F176400003020000F1B0130A00054
:1005300022008F1321000F13200020080800220042
:100540000F178F17640022000F13640022008F130F
:10055000080021000F17640022008F132000A00163
:10056000A101640022008F1764002000A0350F1B3A
:100570002014640022008F1364002000A10A0830B8
:100580002102031CB12A21000F136400200020085F
:10059000080022000F13640022008F17640022005D
:1005A0008F13640022000F17080022008F170F1707
:1005B000640022008F13080022008F130F136400C1
:1005C00022008F17640022000F17080021008F13EC
:1005D0000F1322008F170F170800A001A00AA10116
:1005E0006730F321E600E60AA7012708663E860089
:1005F00087010108A00027088F31062780312000DD
:10060000A70A0230270203180800F52A8D1B0800EC
:100610001A30C900F830C800C80B0C2BC90B0C2BC2
:10062000640020008D1B080000305123963020000C
:10063000A000A1018B31082383310130512388317F
:10064000F420833120005708F03A5604031D312B63
:1006500022000C128C152000E201E20A672383318C
:10066000432BE2018E316726833120006208031993
:100670003D2B22000C128C152E2B22000C168C11F7
:10068000023051238331200062080319432B1430B8
:10069000A000A1018B3108238331083022008C0691
:1006A000432B2000A000A008031D5B2BFF30E900B6
:1006B000EA00EB00872B200B612BE901EA01EB013B
:1006C0005A2B2008023A031D08007730572B2F00C1
:1006D000121E672BA011121E6B2BA1117930200066
:1006E000E9000A30A00062088F31912783319024FD
:1006F0000A30A00062088F31C4278331013E840094
:1007000090300318013E85000008EB00872B200085
:10071000691C8F2B2F00121E8A2BA016932B2F00E3
:10072000121E8F2BA0122000E91C9B2B2F00121EE3
:10073000962BA3169F2B2F00121E9B2BA31220007B
:10074000691DA72B2F00121EA22BA616AB2B2F0064
:10075000121EA72BA6122000E91DB32B2F00121E7C
:10076000AE2BA916B72B2F00121EB32BA9122000F7
:10077000691EBF2B2F00121EBA2BAB16C32B2F00E6
:10078000121EBF2BAB122000E91ECB2B2F00121E16
:10079000C62BA516CF2B2F00121ECB2BA512200087
:1007A000691FD72B2F00121ED22BA816DB2B2F0070
:1007B000121ED72BA81220006A1CE32B2F00121E3A
:1007C000DE2B2214E72B2F00121EE32B2210200019
:1007D000EA1CEF2B2F00121EEA2B2514F32B2F00FF
:1007E000121EEF2B251020006A1DFB2B2F00121E5E
:1007F000F62B2814FF2B2F00121EFB2B2810200095
:10080000EA1D072C2F00121E022C2B140B2C2F007C
:10081000121E072C2B1020006A1E132C2F00121EF4
:100820000E2CAA15172C2F00121E132CAA11200013
:10083000EA1E1F2C2F00121E1A2CA415232C2F0089
:10084000121E1F2CA41120006A1F2B2C2F00121E19
:10085000262CA7152F2C2F00121E2B2CA7112000A1
:10086000EA1F372C2F00121E322C29173B2C2F0089
:10087000121E372C291320006B1C432C2F00121E34
:100880003E2CA217472C2F00121E432CA21320002F
:10089000EB1C4F2C2F00121E4A2CA517532C2F0097
:1008A000121E4F2CA51320006B1D5B2C2F00121E57
:1008B000562CA8175F2C2F00121E5B2CA8132000AB
:1008C000EB1D672C2F00121E622CAB176B2C2F0018
:1008D000121E672CAB1320006B1E732C2F00121EF0
:1008E0006E2CA915772C2F00121E732CA911200035
:1008F000EB1E7F2C2F00121E7A2CA315832C2F00A9
:10090000121E7F2CA31120006B1F8B2C2F00121E98
:10091000862CA61508002F00121E8B2CA61108008D
:10092000013E840090300318013E85000008EA0073
:100930000800F500FA18080079080319A62C7508B4
:100940007906031DA62CFB01362508007A1CB32C62
:100950007508CD248431031CAF2CFB01B02C362547
:100960007A1DFB0108007508BF248431031C0800B0
:100970007A147508CD2484310318A32CA42CF1001B
:10098000F0017F3071020318CB2C21307102031C5F
:10099000CB2CF001F00A700C0800F2007B085A3EE4
:1009A000F300213003182230F40073088600740825
:1009B000870072088100FB0A96307B020800B301B1
:1009C000B301FA107A105D08D3005C08D200FB0175
:1009D0007A1536255A30AD002130AE00C430AF0054
:1009E000B0018B311C2384312E08B5002D08B400D2
:1009F00035040319FE2CB301B30A112D5A30AD0092
:100A00002130AE00B530AF00B0018B311C238431F2
:100A10002E08B5002D08B40035040319132D02303B
:100A2000B300FA14202D52085C02B10053085D3B5C
:100A3000B2005502031D1E2D310854020318EA2C82
:100A40007A116330A0009130A100C4308E312C2681
:100A500084314A30A0009130A100B5308E312C266F
:100A6000F9013230D400D501330808007B085A3E22
:100A700086002130031822308700810108002608F3
:100A80008600270887000108203A031D4B2DA60A7F
:100A90000319A70A3F2D26088600270887000108AA
:100AA000093A0319472DAD01AE01AC0126088600B5
:100AB0002708870001082D3A031D602DAC0A8D2DF3
:100AC000260886002708870001082B3A03198D2D78
:100AD00026088600270887000108A5258531031C04
:100AE000912D26088600270887000108A800A90183
:100AF0002E08A1002D08A0000A30A200A301B325F2
:100B0000853128082007AA002908213DAB002A08C2
:100B1000D03EAD00FF302B3DAE00A60A0319A70A58
:100B2000682D2C080319A02D2D09A8002E09A90055
:100B3000A80A0319A90A2808A6002908A70008007E
:100B40002E08A7002D08A6000800A100A0013A3039
:100B500021020318B12D30302102031CB12DA00158
:100B6000A00A200C0800A401A501201CBB2D22080E
:100B7000A4072308A53DA235A30DA136A00C21088A
:100B80002004031DB52D2508A1002408A00008009D
:100B90006400800101310130FE020030FF3B7F081C
:100BA0007E0403190034C92DFF3FFF3FFF3FFF3F85
:10103000FF3FFF3FFF3FFF3F5A30840021308500D4
:101040009630FE000030FF018531C8258831F70158
:10105000F801F901FA01FB014E30840000308500EF
:101060001B30FE000030FF008531C8258831A030DC
:101070008400003085003C30FE000030FF008531E8
:10108000C825883120308400013085001830FE00EA
:101090000030FF008531C82588314030E900EA0082
:1010A000EB00EC00ED00EE00200056288031E82037
:1010B0008831FA30A000A101082365158331062389
:1010C0008831F420883167268831200065115D0859
:1010D000D9005C08D80020000D1981281A30CB00F7
:1010E000F830CA00CA0B7228CB0B722864002000AB
:1010F0000D1981286514F420883167268831200075
:10110000651077085C02CA0078085D3BCB000030B0
:101110004B02153003194A02031C9B285D08F80096
:101120005C08F7002F00121E92280830A006121E3D
:1011300097280830A106200058085C02CA00590808
:101140005D3BCB005B02031DA7284A085A02031827
:10115000EF285D08D9005C08D800F4208831200011
:101160006435203E8600013087005608C03F57088E
:10117000C13FE40A0C306402031CEF286726883163
:101180002000E40162080319EC286808FF3A031DF7
:10119000CA28E8010C30A000680820268831CC005D
:1011A0001030CC07CD014D08203E8600013087006D
:1011B0000108A0004C084D07062788312000CD0A01
:1011C00018304D02031CD328E80A0A306802031CB9
:1011D000EF28E515E801EF28FF30E800E5112F00C2
:1011E000911E6B2891126B282000E51C1E290530EA
:1011F000AC00AC0803191729F2278831003A03190B
:1012000004292000AC03F9283230A000A1010823F2
:10121000013080312C2088310038031D0129210044
:1012200053082000D600210054082000D700AC0845
:10123000031D3D29D601F030D7003D29E317823147
:101240000C228831013A031D1A291930A000A1018E
:1012500008230030823134228831013A031D1A29D3
:101260005F08D7005E08D600D60ED70E0F30D60521
:101270005708F039D6040F30D705B42EE2018C217F
:101280008831620803195029B830A0000B30A10042
:1012900008238831E2018C2188316208031D08008F
:1012A0006730B1009030B20096228831013A0319BC
:1012B0005C292330E2000800E001E00A2C30D40071
:1012C0000130D5002330B1009030B2009622883131
:1012D000013A03196E292430E20008003230A000E0
:1012E000A1010823883157238831C600460303191A
:1012F0007B2965160800C830B1009030B2009622F4
:1013000088314730B1009030B20096228831BC302D
:10131000B1009030B200962AE22788315F30B100E8
:101320009130B20096228831013A03199A2903308C
:10133000E20008003E30B1009130B20096228831C0
:10134000013A0319A6290C30E2000800EB30B10085
:101350009030B200962288314730B1009030B20010
:1013600096228831EB30B1009030B200962288315D
:101370000A30C000C0080319CD292630B1009130D1
:10138000B20096228831013A0319CD299630A00087
:10139000A10108238831C003BA29C008031DD3293D
:1013A0000430E20008000A30C000DC29C003963097
:1013B000A000A10108238831C0080319152A0130B3
:1013C000B1009130B20096228831013A031DDC2928
:1013D0005A30AD002130AE005A30AF009130B0002D
:1013E0001C2388312E08BF002D08BE003F040319BE
:1013F000D629BD013D08A03E860087013D08B90001
:10140000BA013E07BB003A083F3DBC003B08053E21
:10141000840000303C3D850000088100BD0A0F308B
:101420003D02031CFA292100AF0164302000C000F6
:10143000FF30E100C0080319572A2F30B100913066
:10144000B20096228831013A031D1A2A5A30AD00A3
:101450002130AE004430AF009130B0001C23883101
:101460002E08BF002D08BE003F040319502A3E0875
:10147000053EB90000303F3DBA003908A6003A08E1
:10148000A70085313F2588312608E100A92788314A
:10149000200061080319502A6108633A031D572A86
:1014A000C0039630A000A101082388311A2AC00881
:1014B000031D612A6108FF3A0319612A0F30E20017
:1014C0000800D430B1009030B20096228831143038
:1014D000C000C0080319902AE030B1009030B2007B
:1014E00096228831013A0319782A1030E200080068
:1014F0005A30AD002130AE00F630AF009030B00071
:101500001C2388312E08BF002D08BE003F04031D98
:10151000902A9630A000A10108238831C003692ACF
:10152000C008031D08000530E2000800B601B7013D
:101530006008B500B801B5080319F32A3208A20003
:101540003108A1000F2688316630A1009130A20039
:101550000F26FA107A105D08D3005C08D200FB0158
:101560007A158531362588315A30AD002130AE00EC
:10157000C430AF00B0011C2388312E08B7002D08FD
:10158000B60037040319C72AB801B80AD92A5A3055
:10159000AD002130AE00B530AF00B0011C23883162
:1015A0002E08B7002D08B60037040319DB2A0230D5
:1015B000B800FA14E82A52085C02B30053085D3BF5
:1015C000B4005502031DE62A330854020318B42A56
:1015D0007A11380BEC2AF32A6430A000A101082309
:1015E0008831B5039B2A6330A0009130A100C4303C
:1015F0002C2688314A30A0009130A100B5302C262D
:10160000F9010330E0003230D400D5013808080079
:1016100001302000A0020030A13B200A0319210A5A
:10162000031908001A30A300F830A200A20B162BF1
:10163000A30B162B6400082B492B2E08A7002D089E
:10164000A6003008A9002F08A8003008A1002F0824
:10165000A000222788312108AB002008AA004127DA
:10166000883127082604031908002E08A1002D0838
:10167000A000A00A0319A10A2F08840030088500E1
:101680000008A200A301792788312108AE002008B4
:10169000AD002E082D040319542B2D0886002E08AA
:1016A00087008108031D1D2BAD01AE010800B601A6
:1016B000B60AB701B60803197E2D651DA12B8F3020
:1016C000A1009030A2000F2688310B30A30091308A
:1016D000A4009F258831A030A300A4019F25883154
:1016E0002330802588312000E708031D7B2B5530EF
:1016F000A30091307E2B5030A3009130A4009F2591
:1017000088315708A1005608A000AF258831B801DC
:10171000B901200038084E3E860087010108802567
:1017200088312000B80A0319B90A3908803AFE0046
:1017300080307E02031D9E2B043038020318502D8A
:10174000892B651CE52B8F30A1009030A2000F265D
:1017500088311D30A3009130A4009F258831A0302E
:10176000A300A4019F2588312330802588312000E3
:10177000E708031DBF2B5530A3009130C22B50301A
:10178000A3009130A4009F2588315708A100560876
:10179000A000AF258831BA01BB0120003A084E3EB7
:1017A000860087010108802588312000BA0A0319C4
:1017B000BB0A3B08803AFE0080307E02031DE22B0C
:1017C00004303A020318502DCD2B6808FF3A031954
:1017D0004E2CE51DEF2B7E30A1009030512CAF3008
:1017E000A1009030A2000F2688311C30BE00BF013E
:1017F000C501680845020318032C3C30BE070318D6
:10180000BF0AC50AF92B3B30BE070318BF0A643074
:10181000A000A1013F08A3003E08A2004226883193
:101820002108200464300319222CA000A1013F08E4
:10183000A3003E08A200422688312008303E05263B
:10184000883164302000A000A1013F08A3003E08B9
:10185000A200942688312108BF002008BE000A306B
:10186000A000A1013F08A3003E08A2004226883143
:101870002008303E052688310A302000A000A10152
:101880003F08A3003E08A200942688312008303E7D
:10189000052688312C3005268831542C9F30A10034
:1018A0009030A2000F26883114302000A300913020
:1018B000A4009F258831A030A300A4019F25883172
:1018C0002330802588312000E708031D6B2C55301C
:1018D000A30091306E2C5030A3009130A4009F25BE
:1018E00088316808FF3A03191C2DE51DE62C6808AD
:1018F000FF3EC5000A3045020318AF2CC3010C306F
:10190000A000450820268831C2001030C2074335A8
:10191000C2074208EE2588312000C000420AEE25A9
:1019200088312000C100A1004008A000AF25883107
:10193000C40144084E3E8600870101088025883195
:101940002000C40A04304402031C992C7C308025FA
:101950008831FB278831031C7F2CC5037A2C093082
:10196000C5004508680203181C2DC3010C30A000F7
:10197000450820268831C2001030C2074335C2070F
:101980004208EE2588312000C000420AEE25883149
:101990002000C100A1004008A000AF258831C4018B
:1019A00044084E3E860087010108802588312000CA
:1019B000C40A04304402031CD02C7C3080258831BA
:1019C000FB278831031CB62CC503B12CC501680860
:1019D000450203181C2DC3010C30A0004508202629
:1019E0008831C2001030C2074335C2074208EE25D5
:1019F00088312000C000420AEE2588312000C10055
:101A0000A1004008A000AF258831C40144084E3E23
:101A1000860087010108802588312000C40A04302F
:101A20004402031C062D7C3080258831FB27883139
:101A3000031CEC2CC50AE72CC5010C304502031829
:101A4000502D4535203E860001308700403FA000E4
:101A5000413FA100AF258831BC01BD0120003C08F9
:101A60004E3E860087010108802588312000BC0A8F
:101A70000319BD0A3D08803AFE0080307E02031D36
:101A8000432D04303C02031C2E2D200045080B3A48
:101A900003194D2D7C30802588312000C50A1D2D6D
:101AA00023308025883140308025883190302000D7
:101AB000D4000130D5003730A0009130A100C430EF
:101AC0002C2688314A30A0009130A100B5302C2658
:101AD00088312B30F9006630A1009130A2000F262A
:101AE0008431DF248831B7003708031D7E2D643030
:101AF000A000A10108238831B6035A2B370808003B
:101B00002000A100210E0F39A2000A302202031C7E
:101B10008B2D37308C2D3030A207220805268831D6
:101B200020002108A2000F30A2050A302202031C67
:101B30009B2D37309C2D3030A2072208052E23081C
:101B40008400240885000008A500A50803190800E2
:101B5000802588312000A30A0319A40A9F2D210E95
:101B60000F39A2000A302202031CBA2DF630A20758
:101B70004130BB2D3030A2072208CE002108A20040
:101B80000F30A2050A302202031CCA2DF630A2072C
:101B90004130CB2D3030A2072208CF00200E0F3964
:101BA000A2000A302202031CD92DF630A2074130D0
:101BB000DA2D3030A2072208D0002008A2000F3012
:101BC000A2050A302202031CEC2DF630A207413098
:101BD000A2072208D10008003030E82DA2006400DE
:101BE00023009518EF2D20002208230091003F309C
:101BF000950515140310151803140030093D200035
:101C0000A000A1012300130808002000A000230069
:101C10009E1C072E2000200823009A00080021089F
:101C20008400220885000008A300A3080319080007
:101C30002308052688312000A10A0319A20A0F2EC5
:101C4000A200A10120082218A107A035A236A208EF
:101C5000031D222E21080800A400A50025088600E7
:101C60008701A50A2108A3002008A200A00A0319E1
:101C7000A10A8400230885000008C03F89080319D1
:101C800008002E2EA501A601210820040319622EAA
:101C9000A401A40AA11B4F2EA035A10D492EA535E4
:101CA000A60D21082302031D572E20082202031C23
:101CB0005E2E2008A2022108A33B2514A136A00C09
:101CC000A40B4F2E2608A1002508A00008002630EE
:101CD00023009E0090309D002000651C712EDC27A3
:101CE000883102302000C7007F2EC703B426883118
:101CF000B8302000A0000B30A10008238831C708AD
:101D00000319882EE20165123E218831651A752E6D
:101D1000620803198F2E833167238831902EB426F1
:101D200023009E019D010800210820040319AF2E05
:101D3000A401A40AA11B9F2EA035A10D992E210854
:101D40002302031DA52E20082202031CAB2E20080F
:101D5000A2022108A33BA136A00CA40B9F2E2308AE
:101D6000A1002208A00008005708F03A5604031DFD
:101D7000C72E7930E9003F30EA000630EB002F0033
:101D8000121EBF2EA011121EC32EA111042F2F0050
:101D9000121EC72EA015121ECB2EA115200057080B
:101DA000A6005608A5000430A636A50C890BD42E33
:101DB0002508A7005608A8000F30A8052808133EDC
:101DC000840090300318013E85000008A8000A3006
:101DD000A000270891278831013E84009030031825
:101DE000013E85000008E9000A30A0002708C4274A
:101DF00084319024EA172808013E840090300318AB
:101E0000013E85000008EB008331872BA1002300F1
:101E10009518072F2000210823009100200020089A
:101E2000230093003F30950503108B1B03148B1385
:101E3000151555309600AA30960095141511031803
:101E40008B1708002108A5002008A4002508A3007E
:101E50002408A200A40A0319A50A84002308850007
:101E600000080038031D262F20082402A2002108A4
:101E7000253BA3002208FF3EA000FF30233DA10028
:101E800008000130AA020030AB3B2A0A03192B0AD2
:101E90000319762F26088600270887000108003AD4
:101EA0000319602F28088400290885000008AC0069
:101EB000260886002708870001082C0603196F2FC3
:101EC000260886002708870028088400290885003E
:101ED00000080102A600A701031CA7030800A60A28
:101EE0000319A70AA80A0319A90A412FA601A701E5
:101EF000080020088600210887000108220603192F
:101F000008002108A5002008A400A00A0319A10ABE
:101F10008600250887008108031D792FA001A101F3
:101F20000800A100A30120080319A72FA201A20AFB
:101F3000A01B9C2FA035972FA33520082102031C3E
:101F4000A42F2008A1022314A036A20B9C2F230843
:101F500008000A30A000610891278831A5000A30E6
:101F6000A0006108C427A6007330E9002508843169
:101F700090242608013E840090300318013E85001D
:101F80000008EB008331872BA2000830A300A401D6
:101F90002208A1000730A136890BCB2F243521045C
:101FA000A400A23520082402031CD82F2008A40274
:101FB000A30BC82F240808004030E900EA00EB001A
:101FC0008331872B22008F1605302000A000A1014D
:101FD0000823883122008F12F4302000A000013045
:101FE000A100082B813193218831003A031D01346F
:101FF00044308031B3282000C30A0C30430208006B
:1020000000343F3406345B344F3466346D347D34F1
:1020100007347F346F3477347C3439345E34793428
:102020007134503440340034013401340234033408
:1020300003340434043405340634063407340834D5
:10204000083409340934413454342B344E34533475
:102050004F3443344F343D3432342C3422347734CB
:10206000773477342E3477346C34773464346A348C
:10207000633479342E3463346F346D3422342C3429
:102080003134323431343234393400340034413470
:1020900054342B344334503453344D3453343D345E
:1020A00031342C342C342C3430343134303430341A
:1020B00030343134313431342C3430343034303401
:1020C000303430343034303431340034003441343E
:1020D00054342B344E3453344F34433452343D341F
:1020E000533454345234453441344D342C34363422
:1020F0002C3430342C3431340034003441345434F2
:102100002B344E3453344F34533444343D3432340E
:102110002C343634383437342C34003400344134E1
:1021200054342B344E3453344F34533444343D34CC
:1021300032342C34333432342C34003400344134CF
:1021400054342B344E3453344F34533444343D34AC
:1021500032342C34383437342C34003400344134A5
:1021600054342B344E3453344F34533444343D348C
:1021700032342C3400340034413454342B344E3453
:10218000503453344D3452343D34313400340034FF
:10219000413454342B344E3453344F3443344C3460
:1021A0003D34323400340034413454342B3443341D
:1021B00045345234453447343D34343400340034EB
:1021C000413454342B344334453452344534473449
:1021D0003F3400340034413454342B3443345034CD
:1021E00053344D3453343F34003400342B344334AF
:1021F00045345234453447343A3434342C34313451
:102200000034413454342B344E3443344334493451
:102210004434003400344034233470347434233470
:102220003134233400340034403423347034743473
:1022300023343234233400340034403423347034B3
:10224000743423343334233400340034413454346C
:102250002B34433449344D34493400340034413450
:1022600054342B34433453345134003400344E341A
:1022700053344F344E344D344934003441345434A3
:1022800045343134003400342B3443345334513426
:102290003A3400344534523452344F3452340034DA
:1022A0003134303423340034003436343034233481
:1022B000003400343834393438343634003441345E
:1022C0005434003400344F344B3400340D34003473
:1022D0000034FF3FFF3FFF3FFF3FFF3FFF3FFF3F18
:020000040001F9
:04000E005AFEFCFE9C
:00000001FF
