:1000000080312928FF3FFF3F80312100911E1828B1
:100010002000911E1828911223009D1C12281D12E9
:100020009D101D161908F60076088431F2248031DF
:100030002000111C09002100111C0900640020008F
:1000400011103C309700B0309600DC0A0319DD0A2D
:100050000900880188310F28B2218031003A031D40
:1000600001344430BA28AA00B2218031003A031D7D
:100070000134BE30BA208031003A031D01342A0811
:1000800003195A28AB012B08D33E86008701622052
:1000900080318100AB0A09302B02031C4328083051
:1000A000A000A101D3308E20803121005B06031D0A
:1000B00003340034622080312100D300622021000B
:1000C000D40000342000A201A3018B1321008D1065
:1000D00022008D106B2821008D146E2864000030E2
:1000E00020008D180130A1008B171330A000A00B49
:1000F00077287A2820002108031987280130A000DA
:10010000230A8328A035890B82282008A204A30A89
:1001100008302302031C652822080800A300A90157
:10012000A601A70121082706031D982820082606F6
:100130000319B82826082307A200860087010108B2
:10014000A5000830A40029082506A8000130A8054C
:10015000280BAC281830A906A936A913280BB128FA
:10016000A917A536A40BA328A60A0319A70A922843
:1001700029080800A400B2218031003A031D01348F
:10018000CC30C62080312408C6200034A100A30151
:100190002108A000230ACD28A036890BCC282008EE
:1001A000A2000130A2058B1321008D1022008D10BA
:1001B000D92820002203031DDF2821008D141830C8
:1001C0002000A000A00BE228E52821008D148B1749
:1001D0002000A30A0830230203180800C8285D2164
:1001E0008031E4218031302180312000E708031D77
:1001F000FE282F00121EF928A21602292F00121E17
:10020000FE28A2129B2180310A30AD000829AD03DF
:10021000AD0803191129B22180310038031D0729C7
:10022000E514AD08031D2229E510E3212000631425
:10023000E3106311E730E3056030E304E3138F312B
:10024000BB2780313230A000A1018A31D522803114
:100250008831E320FA302000A000A1018A31D52A9C
:1002600003302F009200980199019A019A1698166E
:1002700099151A14181798159A171A170F30910014
:10028000A001A101A201A301A401A501A601A7014A
:10029000A801A901AA01AB01A0309300303095005C
:1002A00094019117A012A312A612A9162B13A9113B
:1002B000AB12A812A512A21208003F3021009E0026
:1002C00023008C018D018F01900122008F122100EB
:1002D0008F120F1695138D1724008D1722000C1204
:1002E0008C1121000C128C110D153B3020009C004C
:1002F000E3309B001C112100911020009110703000
:1003000098003C309700B03096001814210011146A
:100310002000111021008E170E17263023009E009A
:1003200090309D0019309B00210091162000911201
:100330000B178B17080032302000D400D501033092
:10034000E0003F30A0009130A100C4308D31F9258C
:1003500080312630A0009130A100B5308D31F925D3
:10036000F9010800A201A20A0530A100A103210899
:10037000FF3A0319E12921008D1022008D109F30D2
:100380002000A000A00BC229C52921008D148B13C9
:1003900018302000A000A00BCB29CE29003020006F
:1003A0008D180130A2008B179F30A000A00BD6291A
:1003B000D92920008D18DE29A201A20AA208031D56
:1003C000B629220808002B2AF52180310038031DA8
:1003D000EC29E701E70A3222E501DC01DD0170309A
:1003E000DA001730DB00E8010800A7012708663EA5
:1003F0008600870127088D31BB25803181002000D0
:10040000A70A02302702031CF629A001A00AA101B5
:10041000673012228031A700A70A66082706031951
:1004200001340034A400A501A6012608A200A301FE
:1004300021082302031D1E2A200822020318292A4C
:1004400026082407A200860087010108A507A60A3E
:10045000152A2508080021008F130F1322008F177B
:100460000F170800A001A00AA10167301222E600C0
:10047000E60AA7012708663E860087010108A0005A
:1004800027088E31E52680312000A70A0230270296
:10049000031808003A2A8D1B08001A30C900F830EA
:1004A000C800C80B512AC90B512A640020008D1BBB
:1004B00008000030962296302000A000A1018A3169
:1004C000D5228231013096228831E320823120000A
:1004D0005708F03A5604031D762A22000C128C1598
:1004E0002000E201E20A17248231882AE2018E31DB
:1004F00034268231200062080319822A22000C125D
:100500008C15732A22000C168C110230962282312F
:10051000200062080319882A1430A000A1018A3142
:10052000D5228231083022008C06882A2000A000C3
:10053000A008031DC02AFF30E900EA00EB000E23EB
:100540008231121EA12AA016121EA42AA316121E60
:10055000A72AA616121EAA2AA916121EAD2A2B1702
:10056000121EB02AA915121EB32AAB16121EB62AE5
:10057000A816121EB92AA516121EBC2AA216080019
:10058000200BE62AE901EA01EB010E238231121E5B
:10059000C72AA012121ECA2AA312121ECD2AA61200
:1005A000121ED02AA912121ED32A2B13121ED62ACB
:1005B000A911121ED92AAB12121EDC2AA812121E71
:1005C000DF2AA512121EE22AA21208002008023A0F
:1005D000031D08007730E900EA00EB000E238231AA
:1005E000121EF02AA012121EF32AA312121EF62ABD
:1005F000A612121EF92AA912121EFC2A2B13121E71
:10060000FF2AA911121E022BAB12121E052BA812D3
:10061000121E082BA512121AE42A0B2B2000691CAB
:10062000162B2F00121E112BA2171A2B2F00121E91
:10063000162BA2132000E91C222B2F00121E1D2BAB
:10064000A517262B2F00121E222BA5132000691D93
:100650002E2B2F00121E292BA817322B2F00121E13
:100660002E2BA8132000E91D3A2B2F00121E352B2C
:10067000AB173E2B2F00121E3A2BAB132000691E26
:10068000462B2F00121E412B28174A2B2F00121E1B
:10069000462B28132000E91E522B2F00121E4D2B33
:1006A0002217562B2F00121E522B22132000691FD7
:1006B0005E2B2F00121E592B2517622B2F00121EA6
:1006C0005E2B251320006A1C6A2B2F00121E652B3F
:1006D00020176E2B2F00121E6A2B20132000EA1CFD
:1006E000762B2F00121E712B23177A2B2F00121E30
:1006F000762B231320006A1D822B2F00121E7D2BC8
:100700002617862B2F00121E822B26132000EA1D8F
:100710008E2B2F00121E892B2917922B2F00121EB1
:100720008E2B291320006A1E9A2B2F00121E952B48
:10073000A6159E2B2F00121E9A2BA6112000EA1E32
:10074000A62B2F00121EA12BA015AA2B2F00121EC4
:10075000A62BA01120006A1FB22B2F00121EAD2B5A
:10076000A315B62B2F00121EB22BA3112000EA1FD7
:10077000BE2B2F00121EB92B2B14C22B2F00121EC2
:10078000BE2B2B1020006B1CCA2B2F00121EC52B5A
:10079000A115CE2B2F00121ECA2BA1112000EB1C7D
:1007A000D62B2F00121ED12BA415DA2B2F00121ED0
:1007B000D62BA41120006B1DE22B2F00121EDD2B67
:1007C000A715E62B2F00121EE22BA7112000EB1D10
:1007D000EE2B2F00121EE92BAA15F22B2F00121E52
:1007E000EE2BAA1120006B1EFA2B2F00121EF52BE8
:1007F0002814FE2B2F00121EFA2B28102000EB1EAF
:10080000062C2F00121E012C22140A2C2F00121E5F
:10081000062C221020006B1F122C2F00121E0D2CF4
:10082000251408002F00121E122C251008002F007E
:10083000121E172CA912121E1B2CA816793020008C
:10084000E9000A30A00062088F3170278231372416
:100850000A30A00062088F31A3278231013E840054
:1008600090300318013E85000008EB000E2B013E7E
:10087000840090300318013E85000008EA0008005B
:10088000A3000230A400A501A4032408FF3A031921
:10089000722CAB24843190307624843197248431B7
:1008A000003A031D442C2308762484319724843194
:1008B000003A031D442CAB248431913076248431DA
:1008C00097248431003A031D442CB5248431DF0081
:1008D000D5248431B5248431DE00E1248431200024
:1008E000A501A50AE8242000250808002000A00092
:1008F000A20122008F1320002008A1008030A10552
:10090000A108031D862C22000F13882C22000F172C
:100910002000A035640022008F1764002000A20A86
:1009200008302202031C792C22008F1308002100BA
:100930000F1722008F13640022008F17640000300D
:1009400020000F1B0130A00022008F1321000F1385
:1009500020002008080022000F178F1764002200D3
:100960000F13640022008F13080021000F1764008A
:1009700022008F132000A001A101640022008F1724
:1009800064002000A0350F1B2014640022008F1388
:1009900064002000A10A08302102031CBD2C2100A4
:1009A0000F13640020002008080022000F136400C9
:1009B00022008F17640022008F13640022000F179B
:1009C000080022008F170F17640022008F13080001
:1009D00022008F130F13640022008F17640022007F
:1009E0000F170800F500FA18080079080319FF2C02
:1009F00075087906031DFF2CFB018F2508007A1C62
:100A00000C2D750826258431031C082DFB01092DAA
:100A10008F257A1DFB010800750818258431031CF9
:100A200008007A147508262584310318FC2CFD2C47
:100A3000F100F0017F3071020318242D2130710282
:100A4000031C242DF001F00A700C0800F2007B0852
:100A50008C3EF300213003182230F4007308860026
:100A60007408870072088100FB0A64307B0208006A
:100A7000B301B301FA107A105D08D3005C08D2000C
:100A8000FB017A158F258C30AD002130AE00C430CB
:100A9000AF00B0018A31E92284312E08B5002D085B
:100AA000B40035040319572DB301B30A6A2D8C30F5
:100AB000AD002130AE00B530AF00B0018A31E9227F
:100AC00084312E08B5002D08B400350403196C2DAF
:100AD0000230B300FA14792D52085C02B1005308B9
:100AE0005D3BB2005502031D772D310854020318F7
:100AF000432D7A113F30A0009130A100C4308D31D8
:100B0000F92584312630A0009130A100B5308D3117
:100B1000F925F9013230D400D501330808007B08EB
:100B20008C3E8600213003182230870081010800A6
:100B300026088600270887000108203A031DA42DF7
:100B4000A60A0319A70A982D2608860027088700F9
:100B50000108093A0319A02DAD01AE01AC01260828
:100B600086002708870001082D3A031DB92DAC0A1D
:100B7000E62D260886002708870001082B3A03196E
:100B8000E62D26088600270887000108FE25853106
:100B9000031CEA2D26088600270887000108A80004
:100BA000A9012E08A1002D08A0000A30A200A3016F
:100BB0000C26853128082007AA002908213DAB0012
:100BC0002A08D03EAD00FF302B3DAE00A60A031927
:100BD000A70AC12D2C080319F92D2D09A8002E09EB
:100BE000A900A80A0319A90A2808A6002908A7002D
:100BF00008002E08A7002D08A6000800A100A001EB
:100C00003A30210203180A2E30302102031C0A2E2A
:100C1000A001A00A200C0800A401A501201C142E8C
:100C20002208A4072308A53DA235A30DA136A00CD8
:100C300021082004031D0E2E2508A1002408A00071
:100C400008006400800101310130FE020030FF3BEA
:100C50007F087E0403190034222EFF3FFF3FFF3F31
:10101000FF3FFF3FFF3FFF3FFF3FFF3FFF3F8C3062
:101020008400213085006430FE000030FF018631ED
:1010300021268831F701F801F901FA01FB014E3050
:101040008400003085001B30FE000030FF00863138
:1010500021268831A0308400003085003C30FE001D
:101060000030FF0086312126883120308400013095
:1010700085001830FE000030FF00863121268831BF
:101080004030E900EA00EB00EC00ED00EE0020004B
:1010900049288031EF208831FA30A000A101D52203
:1010A000651582314B228831E3208831342688311E
:1010B000200065115D08D9005C08D80020000D19DA
:1010C00074281A30CB00F830CA00CA0B6528CB0B45
:1010D0006528640020000D1974286514E320883108
:1010E000342688312000651077085C02CA00780831
:1010F0005D3BCB0000304B02153003194A02031C44
:101100008A285D08F8005C08F7002F00121E852869
:101110002030AB06200058085C02CA0059085D3B2D
:10112000CB005B02031D96284A085A020318DE28EA
:101130005D08D9005C08D800E320883120006435C0
:10114000203E8600013087005608C03F5708C13F47
:10115000E40A0C306402031CDE28342688312000A7
:10116000E40162080319DB286808FF3A031DB92867
:10117000E8010C30A0006808ED258831CC00103063
:10118000CC07CD014D08203E8600013087000108C4
:10119000A0004C084D07E52688312000CD0A183004
:1011A0004D02031CC228E80A0A306802031CDE282C
:1011B000E515E801DE28FF30E800E5112F00911E5B
:1011C0005E2891125E282000E51C0E290530AC0037
:1011D000AC080319072980312C208831003A031903
:1011E000F4282000AC03E8283230A000A101D52269
:1011F00001308031332088310038031DF12821006F
:1012000053082000D600210054082000D700AC0865
:10121000031D2C29D601F030D7002C29E317BB275A
:101220008831013A031D0A291930A000A101D522F5
:101230000030843140248831013A031D0A295F08B7
:10124000D7005E08D600D60ED70E0F30D605570849
:10125000F039D6040F30D705962EE201702188317F
:10126000620803193F29B830A0000B30A100D52235
:101270008831E201702188316208031D0800663060
:10128000B1009030B20063228831013A03194B2932
:101290002330E2000800E001E00A2C30D4000130E5
:1012A000D5002230B1009030B20063228831013A7B
:1012B000031D48293230A000A101D5228831242302
:1012C0008831C600BB30B1009030B2006322883153
:1012D0004630B1009030B2006322460B651608001C
:1012E000F02788313B30B1009130B2006322883161
:1012F000013A03197E290330E20008001A30B100D8
:101300009130B20063228831013A03198A290C30E6
:10131000E20008000A30BE00BE0803199F2902300F
:10132000B1009130B20063228831013A03199F293C
:101330009630A000A101D5228831BE038C29BE08B9
:10134000031DA5290430E20008000A30BE00AE29C2
:10135000BE039630A000A101D5228831BE08031932
:10136000E829DD30B1009030B20063228831013AC3
:10137000031DAE298C30AD002130AE003630AF00F9
:101380009130B000E92288312E08BD002D08BC0044
:101390003D040319A829BB013B08A03E8600870134
:1013A0003B083C07B9003D080318890ABB1B8903A9
:1013B000BA003908053E840000303A3D8500000837
:1013C0008100BB0A0F303B02031CCC292100AF0176
:1013D00064302000BE00FF30E100BE0803192A2A55
:1013E0000B30B1009130B20063228831013A031D05
:1013F000ED298C30AD002130AE002030AF009130AF
:10140000B000E92288312E08BD002D08BC003D0443
:101410000319232A3C08053EB90000303D3DBA00BF
:101420003908A6003A08A700853198258831260892
:10143000E10088278831200061080319232A610808
:10144000633A031D2A2ABE039630A000A101D522CB
:101450008831ED29BE08031D342A6108FF3A0319BB
:10146000342A0F30E20008001430BE00BE08031911
:101470005D2AC730B1009030B20063228831013A52
:101480000319452A1030E20008008C30AD002130ED
:10149000AE00D230AF009030B000E92288312E0883
:1014A000BD002D08BC003D04031D5D2A9630A00040
:1014B000A101D5228831BE03362ABE08031D0800CB
:1014C0000530E2000800B601B7016008B500B801B8
:1014D000B5080319C02A3208A2003108A100DC2592
:1014E00088314230A1009130A200DC25FA107A1038
:1014F0005D08D3005C08D200FB017A1585318F2589
:1015000088318C30AD002130AE00C430AF00B00166
:10151000E92288312E08B7002D08B60037040319D8
:10152000942AB801B80AA62A8C30AD002130AE004A
:10153000B530AF00B001E92288312E08B7002D0880
:10154000B60037040319A82A0230B800FA14B52AE5
:1015500052085C02B30053085D3BB4005502031D02
:10156000B32A330854020318812A7A11380BB92A96
:10157000C02A6430A000A101D5228831B503682AB1
:101580003F30A0009130A100C430F92588312630C9
:10159000A0009130A100B530F925F9010330E00039
:1015A0003230D400D5013808080001302000A002F4
:1015B0000030A13B200A0319210A031908001A3040
:1015C000A300F830A200A20BE32AA30BE32A6400D5
:1015D000D52A162B2E08A7002D08A6003008A90032
:1015E0002F08A8003008A1002F08A000012788318B
:1015F0002108AB002008AA002027883127082604EC
:10160000031908002E08A1002D08A000A00A031944
:10161000A10A2F088400300885000008A200A30159
:10162000582788312108AE002008AD002E082D046F
:101630000319212B2D0886002E0887008108031D21
:10164000EA2AAD01AE010800B601B60AB701B60834
:1016500003194B2D651D6E2B8E30A1009030A2001A
:10166000DC258831E730A3009030A4006C25883158
:10167000A030A300A4016C25883123304D2588318A
:101680002000E708031D482B3130A30091304B2B7D
:101690002C30A3009130A4006C2588315708A1009C
:1016A0005608A0007C258831B801B901200038080F
:1016B0004E3E8600870101084D2588312000B80A7A
:1016C0000319B90A3908803AFE0080307E02031DF2
:1016D0006B2B0430380203181D2D562B651CB22BC2
:1016E0008E30A1009030A200DC258831F930A300B3
:1016F0009030A4006C258831A030A300A4016C2593
:10170000883123304D2588312000E708031D8C2BBC
:101710003130A30091308F2B2C30A3009130A400E6
:101720006C2588315708A1005608A0007C25883117
:10173000BA01BB0120003A084E3E8600870101082D
:101740004D2588312000BA0A0319BB0A3B08803AAC
:10175000FE0080307E02031DAF2B04303A020318D6
:101760001D2D9A2B6808FF3A03191B2CE51DBC2B75
:101770007D30A10090301E2CAE30A1009030A20030
:10178000DC2588311C30BE00BF01C5016808450258
:101790000318D02B3C30BE070318BF0AC50AC62B5E
:1017A0003B30BE070318BF0A6430A000A1013F0808
:1017B000A3003E08A2000F268831210820046430CF
:1017C0000319EF2BA000A1013F08A3003E08A200CF
:1017D0000F2688312008303ED22588316430200021
:1017E000A000A1013F08A3003E08A2007626883190
:1017F0002108BF002008BE000A30A000A1013F0858
:10180000A3003E08A2000F2688312008303ED225D2
:1018100088310A302000A000A1013F08A3003E0843
:10182000A200762688312008303ED22588312C301F
:10183000D2258831212C9E30A1009030A200DC25D9
:101840008831F0302000A3009030A4006C2588314E
:10185000A030A300A4016C25883123304D258831A8
:101860002000E708031D382C3130A30091303B2CB9
:101870002C30A3009130A4006C2588316808FF3A11
:101880000319E92CE51DB32C6808FF3EC5000A309A
:10189000450203187C2CC3010C30A0004508ED253F
:1018A0008831C2001030C2074335C2074208BB2549
:1018B00088312000C000420ABB2588312000C100C9
:1018C000A1004008A0007C258831C40144084E3E98
:1018D0008600870101084D2588312000C40A0430A4
:1018E0004402031C662C7C304D258831EB2788315F
:1018F000031C4C2CC503472C0930C5004508680261
:101900000318E92CC3010C30A0004508ED258831EF
:10191000C2001030C2074335C2074208BB258831D8
:101920002000C000420ABB2588312000C100A10070
:101930004008A0007C258831C40144084E3E860042
:10194000870101084D2588312000C40A0430440273
:10195000031C9D2C7C304D258831EB278831031CDE
:10196000832CC5037E2CC501680845020318E92CA9
:10197000C3010C30A0004508ED258831C2001030AD
:10198000C2074335C2074208BB2588312000C0008A
:10199000420ABB2588312000C100A1004008A000F8
:1019A0007C258831C40144084E3E86008701010829
:1019B0004D2588312000C40A04304402031CD32C76
:1019C0007C304D258831EB278831031CB92CC50AA2
:1019D000B42CC5010C30450203181D2D4535203EA1
:1019E000860001308700403FA000413FA1007C25D8
:1019F0008831BC01BD0120003C084E3E86008701B5
:101A000001084D2588312000BC0A0319BD0A3D0894
:101A1000803AFE0080307E02031D102D04303C020F
:101A2000031CFB2C200045080B3A03191A2D7C30AF
:101A30004D2588312000C50AEA2C23304D258831F8
:101A400040304D25883190302000D4000130D50041
:101A50001330A0009130A100C430F9258831263020
:101A6000A0009130A100B530F92588312B30F90064
:101A70004230A1009130A200DC2585313825883123
:101A8000B7003708031D4B2D6430A000A101D522FB
:101A90008831B603272B370808002000A100210E4B
:101AA0000F39A2000A302202031C582D3730592D5D
:101AB0003030A2072208D225883120002108A20058
:101AC0000F30A2050A302202031C682D3730692D21
:101AD0003030A2072208D22D230884002408850074
:101AE0000008A500A508031908004D25883120002D
:101AF000A30A0319A40A6C2D210E0F39A2000A3083
:101B00002202031C872DF630A2074130882D303089
:101B1000A2072208CE002108A2000F30A2050A3039
:101B20002202031C972DF630A2074130982D303049
:101B3000A2072208CF00200E0F39A2000A3022028D
:101B4000031CA62DF630A2074130A72D3030A20786
:101B50002208D0002008A2000F30A2050A3022027D
:101B6000031CB92DF630A2074130A2072208D1008C
:101B700008003030B52DA200640023009518BC2D5C
:101B800020002208230091003F3095051514031012
:101B9000151803140030093D2000A000A101230006
:101BA000130808002000A00023009E1CD42D200054
:101BB000200823009A0008002108840022088500DC
:101BC0000008A300A308031908002308D2258831C0
:101BD0002000A10A0319A20ADC2DA200A1012008FD
:101BE0002218A107A035A236A208031DEF2D210857
:101BF0000800A400A500250886008701A50A210881
:101C0000A3002008A200A00A0319A10A8400230847
:101C100085000008C03F890803190800FB2DA501B5
:101C2000A6012108200403192F2EA401A40AA11B38
:101C30001C2EA035A10D162EA535A60D21082302B8
:101C4000031D242E20082202031C2B2E2008A20292
:101C50002108A33B2514A136A00CA40B1C2E26089A
:101C6000A1002508A00008002F00121E342EA01687
:101C7000121E382EA616121E3B2EAB12121E3E2E20
:101C8000A8122000651C4B2E2F00121E442E2B176D
:101C9000121E482EA91502302000C700592EC70376
:101CA00096268831B8302000A0000B30A100D52244
:101CB0008831C7080319622EE20165122D2188318F
:101CC000651A4F2E2F00121E622EA012121E662EB3
:101CD000A612121E692E2B13121E6C2EA9112000A3
:101CE00062080319752E8431172C962E21082004C2
:101CF0000319912EA401A40AA11B812EA035A10DC8
:101D00007B2E21082302031D872E20082202031C9C
:101D10008D2E2008A2022108A33BA136A00CA40B03
:101D2000812E2308A1002208A00008005708F03ADD
:101D30005604031DA92E7930E9003F30EA00063031
:101D4000EB002F00121EA12EA816121EA52EA912FE
:101D5000E32E2F00121EA92EA91620005708A60058
:101D60005608A5000430A636A50C890BB32E25080D
:101D7000A7005608A8000F30A8052808123E8400C6
:101D800090300318013E85000008A8000A30A0002A
:101D9000270870278831013E840090300318013EE7
:101DA00085000008E9000A30A0002708A327843135
:101DB0003724EA172808013E840090300318013EBA
:101DC00085000008EB0083310E2BA100230095183D
:101DD000E62E200021082300910020002008230087
:101DE00093003F30950503108B1B03148B131515BF
:101DF00055309600AA3096009514151103188B17CC
:101E000008002108A5002008A4002508A300240834
:101E1000A200A40A0319A50A84002308850000086B
:101E20000038031D052F20082402A2002108253BAD
:101E3000A3002208FF3EA000FF30233DA1000800C0
:101E40000130AA020030AB3B2A0A03192B0A0319FE
:101E5000552F26088600270887000108003A031935
:101E60003F2F28088400290885000008AC002608B8
:101E700086002708870001082C0603194E2F260824
:101E800086002708870028088400290885000008A4
:101E90000102A600A701031CA7030800A60A031954
:101EA000A70AA80A0319A90A202FA601A70108005A
:101EB000200886002108870001082206031908006F
:101EC0002108A5002008A400A00A0319A10A860081
:101ED000250887008108031D582FA001A1010800D3
:101EE000A100A30120080319862FA201A20AA01BAA
:101EF0007B2FA035762FA33520082102031C832FCA
:101F00002008A1022314A036A20B7B2F230808006F
:101F10000A30A000610870278831A5000A30A000AF
:101F20006108A327A6007330E9002508843137240F
:101F30002608013E840090300318013E8500000809
:101F4000EB0083310E2BA2000830A300A40122086D
:101F5000A1000730A136890BAA2F24352104A40043
:101F6000A23520082402031CB72F2008A402A30BCB
:101F7000A72F240808000230A300A401A30323080C
:101F8000FF3A0319E62F8431AB2488319030843135
:101F900076248831843197248831003A031DBE2F7E
:101FA0000130843176248831843197248831003A95
:101FB000031DBE2F63088431762488318431972431
:101FC0008831003A031DBE2FA401A40A8431E824FD
:101FD0002000240808002000C30A0C304302080037
:101FE00022008F1605302000A000A101D5228831E3
:101FF00022008F12F4302000A0000130A100D52A69
:1020000000343F3406345B344F3466346D347D34F1
:1020100007347F346F3477347C3439345E34793428
:102020007134503400340134013402340334033445
:1020300004340434053406340634073408340834D0
:1020400009340934413454342B344E3453344F342E
:1020500043344F343D3431342C34223477347734A4
:1020600077342E3477346C34773464346A346334A0
:1020700079342E3463346F346D3422342C3431345B
:10208000323431343234393400340034413454344D
:102090002B344334503453344D3453343D34313481
:1020A0002C342C342C34303431343034303430341B
:1020B0003134313431342C34303430343034303401
:1020C000303430343034313400340034413454341A
:1020D0002B344E3453344F34433452343D34533420
:1020E00054345234453441344D342C3436342C3449
:1020F00030342C34313400340034413454342B34F3
:102100004E3453344F34533444343D3431342C340E
:102110003634383437342C340034003441345434B9
:102120002B344E3453344F34533444343D343134EF
:102130002C34333432342C340034003441345434AD
:102140002B344E3453344F34533444343D343134CF
:102150002C34383437342C34003400344134543483
:102160002B344E3453344F34533444343D343134AF
:102170002C3400340034413454342B344E34533432
:102180004F3443344C343D34313400340034413422
:1021900054342B34433445345234453447343F347B
:1021A000003400342B3443344534523445344734FE
:1021B0003A3430342C3431340034413454342B34F8
:1021C0004E344334433449344434003400344034CE
:1021D00023347034743423343134233400340034E1
:1021E0004034233470347434233432342334003490
:1021F000003440342334703474342334333423347F
:1022000000340034413454342B34433449344D3495
:10221000493400340034413454342B34433453347F
:102220005134003400344E3453344F344E344D3432
:1022300049340034413454344534313400340034AA
:102240002B344334533451343A340034453452340B
:1022500052344F3452340034313430342334003467
:1022600000343634303423340034003438343934D4
:1022700038343634003441345434003400344F346C
:102280004B3400340D3400340034FF3FFF3FFF3F38
:00000001FF
