:10000000000080312928FF3F80312100911E1828EF
:100010002000911E1828911223009D1C12281D12E9
:100020009D101D161908F60076088631702680315D
:100030002000111C09002100111C0900640020008F
:1000400011103C309700B0309600DD0A0319DE0A2B
:100050000900880188310A282F00121E2C28A016BA
:10006000121E3028A616121E3328AB12121E362876
:10007000A8122000661C43282F00121E3C282B17B4
:10008000121E4028A91502302000C700C708031916
:100090006B28E3016612222380310038031D5428A7
:1000A00002302000E3005E28893195218031630809
:1000B000031D0F1E5D281330E3000130661E6B2800
:1000C000C703D222B8302000A0000B30A1008B3132
:1000D0003623803146282F00121E6B28A012121ED4
:1000E0006F28A612121E72282B13121E7528A91132
:1000F0002000630803197D28492AD22A8D1B080095
:100100001A30C800F830C700C70B8428C80B8428F1
:10011000640020008D1B08000030C82096302000AD
:10012000A000A1018B31362380310130C8208831F5
:10013000DD20803120005608F03A5504031DA9281F
:1001400022000C128C152000E301E30A49228031C1
:10015000BA28E30181228031200063080319B42802
:1001600022000C128C15A62822000C168C110230CD
:10017000C8208031200063080319BA281430A00079
:10018000A1018B3136238031083022008C06BA2839
:100190002000A000A008031DF228FF30EA00EB00B9
:1001A000EC0040218031121ED328A016121ED62842
:1001B000A316121ED928A616121EDC28A916121E76
:1001C000DF282B17121EE228A915121EE528AB16F0
:1001D000121EE828A816121EEB28A516121EEE28DD
:1001E000A2160800200B1829EA01EB01EC014021BE
:1001F0008031121EF928A012121EFC28A312121E12
:10020000FF28A612121E0229A912121E05292B135D
:10021000121E0829A911121E0B29AB12121E0E293B
:10022000A812121E1129A512121E1429A2120800CA
:100230002008023A031D08007730EA00EB00EC00CA
:1002400040218031121E2229A012121E2529A3123C
:10025000121E2829A612121E2B29A912121E2E299F
:100260002B13121E3129A911121E3429AB12121E92
:100270003729A812121E3A29A512121A16293D2949
:1002800020006A1C48292F00121E4329A2174C295E
:100290002F00121E4829A2132000EA1C54292F0007
:1002A000121E4F29A51758292F00121E5429A513D5
:1002B00020006A1D60292F00121E5B29A8176429DF
:1002C0002F00121E6029A8132000EA1D6C292F00A0
:1002D000121E6729AB1770292F00121E6C29AB1351
:1002E00020006A1E78292F00121E732928177C29E6
:1002F0002F00121E782928132000EA1E84292F00BF
:10030000121E7F29221788292F00121E84292213EA
:1003100020006A1F90292F00121E8B29251794296F
:100320002F00121E9029251320006B1C9C292F00E2
:10033000121E97292017A0292F00121E9C29201376
:100340002000EB1CA8292F00121EA3292317AC297B
:100350002F00121EA829231320006B1DB4292F0083
:10036000121EAF292617B8292F00121EB4292613F2
:100370002000EB1DC0292F00121EBB292917C429FC
:100380002F00121EC029291320006B1ECC292F001C
:10039000121EC729A615D0292F00121ECC29A6117E
:1003A0002000EB1ED8292F00121ED329A015DC290E
:1003B0002F00121ED829A01120006B1FE4292F0046
:1003C000121EDF29A315E8292F00121EE429A3110C
:1003D0002000EB1FF0292F00121EEB292B14F4290B
:1003E0002F00121EF0292B1020006C1CFC292F005E
:1003F000121EF729A115002A2F00121EFC29A11197
:100400002000EC1C082A2F00121E032AA4150C2A17
:100410002F00121E082AA41120006C1D142A2F0080
:10042000121E0F2AA715182A2F00121E142AA71110
:100430002000EC1D202A2F00121E1B2AAA15242A98
:100440002F00121E202AAA1120006C1E2C2A2F0019
:10045000121E272A2814302A2F00121E2C2A281098
:100460002000EC1E382A2F00121E332A22143C2AA8
:100470002F00121E382A221020006C1F442A2F0041
:10048000121E3F2A251408002F00121E442A251090
:1004900008002F00121E492AA912121E4D2AA81662
:1004A00079302000EA000A30A00063088C3126244D
:1004B00080314B2380310A30A000630869228031EB
:1004C000013E840090300318013E85000008EC00D6
:1004D0004029A2000830A300A4012208A10007308F
:1004E000A136890B702A24352104A400A2352008E6
:1004F0002402031C7D2A2008A402A30B6D2A2408D1
:1005000008002F00121E812AA016121E852AA61688
:10051000121E882AAB12121E8B2AA8122000661CFB
:10052000982A2F00121E912A2B17121E952AA91500
:1005300002302000C600C6080319BF2AE3012223A7
:1005400080310038031DA82A02302000E300B22ABF
:100550008931772180316308031D0F1EB12A1330C2
:10056000E3000130661EBF2AC603D222B830200045
:10057000A0000B30A1008B31362380319B2A2F0045
:10058000121EBF2AA012121EC32AA612121EC62AAB
:100590002B13121EC92AA911200063080319D12A9E
:1005A000492AD22A5608F03A5504031DE52A793023
:1005B000EA003F30EB000630EC002F00121EDD2A6F
:1005C000A816121EE12AA912212B2F00121EE52ABD
:1005D000A91620005608A6005508A5000430A63626
:1005E000A50C890BEF2A2508A7005508A8000F3095
:1005F000A8052808123E840090300318013E8500AB
:100600000008A8000A30A00027088C312624803179
:10061000013E840090300318013E85000008EA0086
:100620000A30A0002708692280314B238031EB1764
:100630002808013E840090300318013E8500000820
:10064000EC00402922008F1605302000A000A101F7
:100650008B313623803122008F12F4302000A0002D
:100660000130A1008B3136230134E101E10A0F3062
:10067000B1009130B2008A31CA228031013A031DA3
:10068000462B0330E30022008F120134B90B352BC7
:1006900022008F120034013E840090300318013E86
:1006A00085000008EB000800D9248331003A031DBF
:1006B00001344430E22BAA00D9248331003A031DCF
:1006C0000134BE30E2238331003A031D01342A088D
:1006D0000319822BAB012B08D33E860087018A23A6
:1006E00083318100AB0A09302B02031C6B2B0830CD
:1006F000A000A101D330B623833121005B06031D86
:10070000033400348A2383312100D3008A2321005B
:10071000D40000342000A201A3018B1321008D100E
:1007200022008D10932B21008D14962B6400003035
:1007300020008D180130A1008B171330A000A00BF2
:100740009F2BA22B200021080319AF2B0130A00002
:10075000230AAB2BA035890BAA2B2008A204A30ADD
:1007600008302302031C8D2B22080800A300A901D6
:10077000A601A70121082706031DC02B2008260675
:100780000319E02B26082307A20086008701010831
:10079000A5000830A40029082506A8000130A805F6
:1007A000280BD42B1830A906A936A913280BD92B4E
:1007B000A917A536A40BCB2BA60A0319A70ABA2B97
:1007C00029080800A400D9248331003A031D01340C
:1007D000CC30EE2383312408EE230034A100A301A2
:1007E0002108A000230AF52BA036890BF42B200842
:1007F000A2000130A2058B1321008D1022008D1064
:10080000012C20002203031D072C21008D14183019
:100810002000A000A00B0A2C0D2C21008D148B179A
:100820002000A30A0830230203180800F02B8424B8
:1008300083310B258331572483312000E808031DC1
:10084000262C2F00121E212CA2162A2C2F00121E3D
:10085000262CA212C22483310A30AD00302CAD0305
:10086000AD080319392CD92483310038031D2F2CEE
:10087000E614AD08031D492CE6100A25833120003B
:100880006414E4106411E730E4056030E404E41318
:100890008F253230A000A1018B313623833188317E
:1008A000DD20FA302000A000A1018B31362B03306F
:1008B0002F009200980199019A019A16981699159D
:1008C0001A14181798159A171A170F309100A001CB
:1008D000A101A201A301A401A501A601A701A801EC
:1008E000A901AA01AB01A03093003030950094011A
:1008F0009117A012A312A612A9162B13A911AB12BD
:10090000A812A512A21208003F3021009E00230069
:100910008C018D018F01900122008F1221008F1216
:100920000F1695138D1724008D1722000C128C11B1
:1009300021000C128C110D153B3020009C00E3307F
:100940009B001C1121009110200091107030980024
:100950003C309700B030960018142100111420008C
:10096000111021008E170E17263023009E009030A4
:100970009D0019309B0021009116200091120B1749
:100980008B17080032302000D300D4010330E1007F
:100990001330A0009130A100C4308B318523833106
:1009A000FA30A0009030A100B5308B318523F701DB
:1009B0000800A201A20A0530A100A1032108FF3A04
:1009C0000319082D21008D1022008D109F3020006A
:1009D000A000A00BE92CEC2C21008D148B131830F7
:1009E0002000A000A00BF22CF52C003020008D1868
:1009F0000130A2008B179F30A000A00BFD2C002D12
:100A000020008D18052DA201A20AA208031DDD2CCD
:100A100022080800692E242583310038031D142D77
:100A2000E801E80A5A258331E601DD01DE01E80824
:100A3000031D1E2DA030D9008C30212D7030D9001F
:100A40001730DA00E9010800A7012708673E860091
:100A5000870127088F314727833181002000A70AAB
:100A600002302702031C252DA001A00AA101683035
:100A700041258331A700A70A670827060319013417
:100A80000034A400A501A6012608A200A3012108A4
:100A90002302031D4D2D200822020318582D26087D
:100AA0002407A200860087010108A507A60A442D95
:100AB00025080800A001A00AA10168304125833162
:100AC000E700E70AA7012708673E860087010108BB
:100AD000A0002708732583312000A70A02302702CF
:100AE00003180800632DA10023009518742D200021
:100AF00021082300910020002008230093003F30AC
:100B0000950503108B1B03148B1315155530960098
:100B1000AA3096009514151103188B17080002309F
:100B2000A300A401A3032308FF3A0319B32D22262F
:100B300083319030ED2583310E268331003A031D39
:100B4000922D0130ED2583310E268331003A031DAD
:100B5000922D6408ED2583310E268331003A031D62
:100B6000922DA401A40A5F26200024080800A300F7
:100B70000230A400A501A4032408FF3A0319E92DBB
:100B8000222683319030ED2583310E268331003AC1
:100B9000031DBB2D2308ED2583310E268331003A3A
:100BA000031DBB2D222683319130ED2583310E2686
:100BB0008331003A031DBB2D2C268331E0004C26E7
:100BC00083312C268331DF00582683312000A50194
:100BD000A50A5F262000250808002000A000A20129
:100BE00022008F1320002008A1008030A105A10859
:100BF000031DFD2D22000F13FF2D22000F172000D3
:100C0000A035640022008F1764002000A20A08307B
:100C10002202031CF02D22008F13080021000F1761
:100C200022008F13640022008F1764000030200020
:100C30000F1B0130A00022008F1321000F13200092
:100C40002008080022000F178F17640022000F13DE
:100C5000640022008F13080021000F176400220097
:100C60008F132000A001A101640022008F176400EF
:100C70002000A0350F1B2014640022008F13640095
:100C80002000A10A08302102031C342E21000F137A
:100C9000640020002008080022000F1364002200D6
:100CA0008F17640022008F13640022000F170800C2
:100CB00022008F170F17640022008F1308002200F4
:100CC0008F130F13640022008F17640022000F1788
:100CD000080021008F130F1322008F170F17080031
:100CE000F500F8180800770803197E2E75087706B6
:100CF000031D7E2EF9018F31C9270800781C8C2E28
:100D00007508A6268631031C872EF901892E8F319E
:100D1000C927781DF9010800750898268631031C3B
:100D2000080078147508A626863103187A2E7B2EC3
:100D3000F100F0017F3071020318A42E21307102FE
:100D4000031CA42EF001F00A700C0800F2007908D0
:100D50008C3EF300213003182230F4007308860023
:100D60007408870072088100F90A6430790208006B
:100D700001343230A000A1018B31362386310F1AA5
:100D8000C52EA403A408031DB92EA408031900341A
:100D900001346400800101310130FE020030FF3B6C
:100DA0007F087E0403190034CA2EFF3FFF3FFF3F38
:10101000FF3FFF3F8C308400213085006430FE00AC
:101020000030FF018631C9268831F701F801F90146
:101030004D308400003085001D30FE000030FF0080
:101040008631C9268831A0308400003085003C30CC
:10105000FE000030FF008631C92688312030840030
:10106000013085001830FE000030FF008631C926AF
:1010700088314030EA00EB00EC00ED00EE00EF00BC
:1010800020004228843117248831FA30A000A101C1
:101090003623661580317E208831DD2080312C207A
:1010A0008831200066115E08D8005D08D700200056
:1010B0000D196D281A30CA00F830C900C90B5E2816
:1010C000CA0B5E28640020000D196D286614DD200F
:1010D00080312C208831200066105B085D02C90039
:1010E0005C085E3BCA0000304A0215300319490211
:1010F000031C83285E08DC005D08DB002F00121E45
:101100007E282030AB06200057085D02C900580831
:101110005E3BCA005A02031D8F2849085902031872
:10112000D8285E08D8005D08D700DD20883120006F
:101130006535203E8600013087005508C03F5608BF
:10114000C13FE50A0C306502031CD82880312C20F1
:1011500088312000E50163080319D5286908FF3AA2
:10116000031DB328E9010C30A00069086F27CB00EC
:101170001030CB07CC014C08203E860001308700A0
:101180000108A0004B084C078531732588312000E9
:10119000CC0A18304C02031CBB28E90A0A30690249
:1011A000031CD828E615E901D828FF30E900E6112C
:1011B0002F00911E5728911257282000E61C08295D
:1011C0000530AC00AC080319012983315423883160
:1011D000003A0319EE282000AC03E2283230A000C8
:1011E000A1013623013083315B2388310038031D90
:1011F000EB28210053082000D500210054082000CE
:10120000D600AC08031D2729D501F030D6002729C8
:10121000E41785318F258831013A031D04291930DF
:10122000A000A101362300308531B7258831013A6D
:10123000031D04296008D6005F08D500D50ED60E20
:101240000F30D5055608F039D5040F30D605823158
:10125000D22AB301B301D2278831C92788318C3013
:10126000AD002130AE00C430AF00B0014A23883158
:101270002E08B5002D08B400350403194229B30126
:10128000B30A54298C30AD002130AE00B530AF0028
:10129000B0014A2388312E08B5002D08B40035046A
:1012A000031956290230B300F814632951085D026E
:1012B000B10052085E3BB2005402031D612931089F
:1012C000530203182F2978111330A0009130A10088
:1012D000C43085238831FA30A0009030A100B530A9
:1012E0008523F7013230D300D40133080800D4211C
:1012F00088316308031D08004630B1009030B20009
:10130000CA228831013A031988292330E3000800F2
:10131000DB278831CA228831013A031D8529323002
:10132000A000A10136238831B22C2000E301D42192
:10133000883163080319A829B830A0000B30A10038
:1013400036238831E301D42188316308031D080066
:101350004630B1009030B200CA228831013A0319F8
:10136000B4292330E3000800DB278831CA22883102
:10137000013A031DB1293230A000A1013623883182
:10138000B2248831C6004603031908006308223AD4
:10139000031DCC2966160800E301B2248831C6007B
:1013A000460303190800CA2996302000A000A101B5
:1013B000362388310F30B1009130B200CA22883113
:1013C000013A0319E6290330E3000800EE30B100CA
:1013D0009030B200CA228831013A0319F2290C3048
:1013E000E30008000A30BE00BE080319072AD63001
:1013F000B1009030B200CA228831013A0319072A9D
:101400009630A000A10136238831BE03F429BE081E
:10141000031D0D2A0430E30008000A30BE00162A1E
:10142000BE039630A000A10136238831BE080319FF
:10143000502AB130B1009030B200CA228831013A4E
:10144000031D162A8C30AD002130AE000A30AF00EB
:101450009130B0004A2388312E08BD002D08BC0011
:101460003D040319102ABB013B08A03E86008701FA
:101470003B083C07B9003D080318890ABB1B8903D8
:10148000BA003908053E840000303A3D8500000866
:101490008100BB0A0F303B02031C342A2100AF013C
:1014A00064302000BE00FF30E200BE080319912A1C
:1014B000DF30B1009030B200CA228831013A031DFA
:1014C000552A8C30AD002130AE00F430AF009030A2
:1014D000B0004A2388312E08BD002D08BC003D0411
:1014E00003198A2A3C08053EB90000303D3DBA0088
:1014F0003908A6003A08A7003E2488312608E200F1
:101500000A2488312000620803198A2A6208633A93
:10151000031D912ABE039630A000A1013623883115
:10152000552ABE08031D9B2A6208FF3A03199B2A0D
:101530000F30E30008001430BE00BE080319C42AAF
:101540009B30B1009030B200CA228831013A0319B1
:10155000AC2A1030E30008008C30AD002130AE0022
:10156000A630AF009030B0004A2388312E08BD006D
:101570002D08BC003D04031DC42A9630A000A10123
:1015800036238831BE039D2ABE08031D080005309E
:10159000E3000800B601B7016108B500B801B5085D
:1015A0000319212B3208A2003108A1005E278831DF
:1015B0001630A1009130A2005E278831D2278831F1
:1015C000C92788318C30AD002130AE00C430AF0067
:1015D000B0014A2388312E08B7002D08B600370421
:1015E0000319F52AB801B80A072B8C30AD00213059
:1015F000AE00B530AF00B0014A2388312E08B700E5
:101600002D08B60037040319092B0230B800F8146E
:10161000162B51085D02B30052085E3BB400540221
:10162000031D142B330853020318E22A7811380BD8
:101630001A2B212B6430A000A10136238831B50379
:10164000CF2A1330A0009130A100C4308523883107
:10165000FA30A0009030A100B5308523F7010330A7
:10166000E1003230D300D4013808080001302000F6
:10167000A0020030A13B200A0319210A0319080027
:101680001A30A300F830A200A20B442BA30B442B6A
:101690006400362B772B2E08A7002D08A6003008F3
:1016A000A9002F08A8003008A1002F08A0009B2344
:1016B00088312108AB002008AA00BA238831270806
:1016C0002604031908002E08A1002D08A000A00A76
:1016D0000319A10A2F088400300885000008A20021
:1016E000A301F22388312108AE002008AD002E08A6
:1016F0002D040319822B2D0886002E0887008108EF
:10170000031D4B2BAD01AE010800A400A500250868
:1017100086008701A50A2108A3002008A200A00ACC
:101720000319A10A8400230885000008C03F890826
:1017300003190800872B2108A5002008A40025080C
:10174000A3002408A200A40A0319A50A8400230800
:10175000850000080038031D9F2B20082402A200EA
:101760002108253BA3002208FF3EA000FF30233DB7
:10177000A10008000130AA020030AB3B2A0A03197D
:101780002B0A0319EF2B260886002708870001087B
:10179000003A0319D92B280884002908850000087D
:1017A000AC00260886002708870001082C060319CC
:1017B000E82B2608860027088700280884002908C7
:1017C000850000080102A600A701031CA70308006A
:1017D000A60A0319A70AA80A0319A90ABA2BA6017F
:1017E000A7010800200886002108870001082206BA
:1017F000031908002108A5002008A400A00A031965
:10180000A10A8600250887008108031DF22BA0018C
:10181000A10108000A30A00062082624A5000A30B1
:10182000A0006208823169228831A6007330EA0084
:10183000250883314B232608013E8400903003188D
:10184000013E85000008EC0081314029A100A30180
:10185000200803193C2CA201A20AA01B312CA035A0
:101860002C2CA33520082102031C392C2008A102AE
:101870002314A036A20B312C23080800260886006A
:10188000270887000108203A031D4A2CA60A0319DD
:10189000A70A3E2C26088600270887000108093A77
:1018A0000319462CAD01AE01AC01260886002708BD
:1018B000870001082D3A031D5F2CAC0A8C2C2608EA
:1018C00086002708870001082B3A03198C2C26086C
:1018D0008600270887000108A4248831031C902C67
:1018E00026088600270887000108A800A9012E08FD
:1018F000A1002D08A0000A30A200A301EB27883127
:1019000028082007AA002908213DAB002A08D03E5C
:10191000AD00FF302B3DAE00A60A0319A70A672CC5
:101920002C0803199F2C2D09A8002E09A900A80A2C
:101930000319A90A2808A6002908A70008002E08EC
:10194000A7002D08A6000800A100A0013A3021023E
:101950000318B02C30302102031CB02CA001A00AC7
:10196000200C0800B601B60AB701B6080319D72E35
:10197000661DFC2C6E30A1009030A2005E278831DD
:10198000BB30A3009030A400F8268831A030A3001B
:10199000A401F82688312330D92688312000E808B0
:1019A000031DD62C0530A3009130D92C0030A300A4
:1019B0009130A400F82688315608A1005508A000EF
:1019C00008278831B801B901200038084D3E86004B
:1019D00087010108D92688312000B80A0319B90AFD
:1019E0003908803AFE0080307E02031DF92C043055
:1019F00038020318AB2EE42C661C402D6E30A1007B
:101A00009030A2005E278831CD30A3009030A40032
:101A1000F8268831A030A300A401F82688312330AD
:101A2000D92688312000E808031D1A2D0530A300AF
:101A300091301D2D0030A3009130A400F82688318C
:101A40005608A1005508A00008278831BA01BB013B
:101A500020003A084D3E860087010108D9268831CA
:101A60002000BA0A0319BB0A3B08803AFE00803006
:101A70007E02031D3D2D04303A020318AB2E282DA3
:101A80006908FF3A0319A52DE61D4A2D5D30A10016
:101A90009030A82D8E30A1009030A2005E278831B2
:101AA0001C30BE00BF01C5016908450203185E2D48
:101AB0003C30BE070318BF0AC50A542D6430A0008D
:101AC000A1013F08A3003E08A2007B27883121081E
:101AD000200464300319792DA000A1013F08A30060
:101AE0003E08A2007B2788312008303ED926883165
:101AF00064302000A000A1013F08A3003E08A2001E
:101B0000A92788312108BF002008BE000A30A000A4
:101B1000A1013F08A3003E08A2007B2788312008CE
:101B2000303ED92688310A302000A000A1013F08AC
:101B3000A3003E08A200A92788312008303ED926FC
:101B400088312C30D9268831AB2D7E30A1009030E1
:101B5000A2005E278831C4302000A3009030A4008A
:101B6000F8268831A030A300A401F826883123305C
:101B7000D92688312000E808031DC22D0530A300B6
:101B80009130C52D0030A3009130A400F826883193
:101B90006908FF3A0319732EE61D3D2E6908FF3EC2
:101BA000C5000A3045020318062EC3010C30A00000
:101BB00045086F278831C2001030C2074335C2077D
:101BC0004208472788312000C000420A4727883151
:101BD0002000C100A1004008A00008278831C401EE
:101BE00044084D3E860087010108D926883120002F
:101BF000C40A04304402031CF02D7C30D9268831FD
:101C0000E6278831031CD62DC503D12D0930C50028
:101C1000450869020318732EC3010C30A000450863
:101C20006F278831C2001030C2074335C20742080F
:101C3000472788312000C000420A4727883120000A
:101C4000C100A1004008A00008278831C401440851
:101C50004D3E860087010108D92688312000C40A3C
:101C600004304402031C272E7C30D9268831E62715
:101C70008831031C0D2EC503082EC50169084502D5
:101C80000318732EC3010C30A00045086F2788315C
:101C9000C2001030C2074335C207420847278831C7
:101CA0002000C000420A472788312000C100A1005F
:101CB0004008A00008278831C40144084D3E860032
:101CC00087010108D92688312000C40A0430440263
:101CD000031C5D2E7C30D9268831E6278831031C11
:101CE000432EC50A3E2EC5010C3045020318AB2E0B
:101CF0003B30BE070318BF0A4535203E8600013041
:101D00008700403FA000413FA10008278831BC0167
:101D1000BD0120003C084D3E860087010108D92600
:101D200088312000BC0A0319BD0A3D08803AFE0034
:101D300080307E02031D9E2E04303C02031C892E3F
:101D4000200045080B3A0319A82E7C30D92688318B
:101D50002000C50A742E2330D92688314030D92678
:101D6000883190302000D3000130D400E730A0004B
:101D70009030A100C43085238831FA30A000903023
:101D8000A100B530852388311630A1009130A20022
:101D90005E27883129218831B7003708031DD72EE7
:101DA0006430A000A10136238831B603B52C370872
:101DB00008002000A100210E0F39A2000A302202E3
:101DC000031CE42E3730E52E3030A2072208A0276E
:101DD000883120002108A2000F30A2050A3022021B
:101DE000031CF42E3730F52E3030A2072208A02F26
:101DF00023088400240885000008A500A50803190D
:101E00000800D92688312000A30A0319A40AF82E55
:101E1000210E0F39A2000A302202031C132FF630C4
:101E2000A2074130142F3030A2072208CD0021082C
:101E3000A2000F30A2050A302202031C232FF63025
:101E4000A2074130242F3030A2072208CE00200EF6
:101E50000F39A2000A302202031C322FF630A207EB
:101E60004130332F3030A2072208CF002008A200D3
:101E70000F30A2050A302202031C452FF630A207BC
:101E80004130A2072208D00008003030412FA200C4
:101E9000640023009518482F200022082300910099
:101EA0003F30950515140310151803140030093D33
:101EB0002000A000A10123001308080021088400CD
:101EC000220885000008A300A308031908002308BE
:101ED000A02788312000A10A0319A20A5E2FA200C0
:101EE000A10120082218A107A035A236A208031DCF
:101EF000712F21080800A501A6012108200403195B
:101F00009B2FA401A40AA11B882FA035A10D822F0D
:101F1000A535A60D21082302031D902F20082202BB
:101F2000031C972F2008A2022108A33B2514A136E9
:101F3000A00CA40B882F2608A1002508A0000800EB
:101F4000A00023009E1CA12F2000200823009A003F
:101F50000800210820040319C42FA401A40AA11B0E
:101F6000B42FA035A10DAE2F21082302031DBA2FD7
:101F700020082202031CC02F2008A2022108A33B34
:101F8000A136A00CA40BB42F2308A1002208A000A6
:101F9000080079088C3E8600213003182230870023
:101FA00081010800F81078105E08D2005D08D100A9
:101FB000F90178150800E101E10A5830D300023038
:101FC000D4002230B1009030B20008002000C30AD3
:101FD0000C3043020800A401A501201CF32F2208A5
:101FE000A4072308A53DA235A30DA136A00C210806
:101FF0002004031DED2F2508A1002408A0000800DF
:1020000000343F3406345B344F3466346D347D34F1
:1020100007347F346F3477347C3439345E34793428
:102020007134503400340134013402340334033445
:1020300004340434053406340634073408340834D0
:1020400009340934413454342B344E3453344F342E
:1020500043344F343D3431342C34223477347734A4
:1020600077342E3477346C34773464346A346334A0
:1020700079342E3463346F346D3422342C3431345B
:10208000323431343234393400340034413454344D
:102090002B344E3453344F34433452343D34533460
:1020A00054345234453441344D342C3436342C3489
:1020B00030342C34313400340034413454342B3433
:1020C0004E3453344F34533444343D3431342C344F
:1020D0003634383437342C340034003441345434FA
:1020E0002B344E3453344F34533444343D34313430
:1020F0002C34333432342C340034003441345434EE
:102100002B344E3453344F34533444343D3431340F
:102110002C34383437342C340034003441345434C3
:102120002B344E3453344F34533444343D343134EF
:102130002C3400340034413454342B34433445348B
:102140005234453447343F34003400342B34433464
:1021500045345234453447343A3430342C343134F5
:102160000034413454342B344E34433443344934F2
:102170004434003400344034233470347434233411
:102180003134233400340034403423347034743414
:102190002334323423340034003440342334703454
:1021A000743423343334233400340034413454340D
:1021B0002B34433449344D344934003400344134F1
:1021C00054342B34433453345134003400344E34BB
:1021D00053344F3443344C34493400344134543450
:1021E00045343134003400342B34433453345134C7
:1021F0003A3400344534523452344F34523400347B
:102200003134303423340034003436343034233421
:1022100000340034383439343834363400344134FE
:102220005434003400344F344B3400340D34003413
:102230000034FF3FFF3FFF3FFF3FFF3FFF3FFF3FB8
:00000001FF
