:10000000000080312928FF3F80312100911E1828EF
:100010002000911E1828911223009D1C12281D12E9
:100020009D101D161908F60076088431E3248031EE
:100030002000111C09002100111C0900640020008F
:1000400011103C309700B0309600DC0A0319DD0A2D
:100050000900880188310B28AA00AB218031003AC1
:10006000031D0134BE30B3208031003A031D01343A
:100070002A0803195328AB012B08D33E86008701B9
:100080005B2080318100AB0A09302B02031C3C2825
:100090000830A000A101D3308720803121005B0609
:1000A000031D033400345B2080312100D3005B202A
:1000B0002100D40000342000A201A3018B132100F1
:1000C0008D1022008D10642821008D146728640093
:1000D000003020008D180130A1008B171330A000D4
:1000E000A00B7028732820002108031980280130F4
:1000F000A000230A7C28A035890B7B282008A204B5
:10010000A30A08302302031C5E2822080800A3006B
:10011000A901A601A70121082706031D912820088F
:1001200026060319B12826082307A20086008701A6
:100130000108A5000830A40029082506A800013000
:10014000A805280BA5281830A906A936A913280B3D
:10015000AA28A917A536A40B9C28A60A0319A70A42
:100160008B2829080800A400AB218031003A031D28
:100170000134CC30BF2080312408BF200034A100DE
:10018000A3012108A000230AC628A036890BC52890
:100190002008A2000130A2058B1321008D1022003F
:1001A0008D10D22820002203031DD82821008D1491
:1001B00018302000A000A00BDB28DE2821008D14C1
:1001C0008B172000A30A0830230203180800C12857
:1001D00056218031DD218031292180312000E7083E
:1001E000031DF7282F00121EF228A216FB282F004D
:1001F000121EF728A212942180310A30AD00012985
:10020000AD03AD0803190A29AB2180310038031D65
:100210000029E514AD08031D1B29E510DC21200091
:100220006314E3106311E730E3056030E304E31384
:100230008F31AA2780313230A000A1018A31C42237
:1002400080318831DF20FA302000A000A1018A31FE
:10025000C42A03302F009200980199019A019A163E
:10026000981699151A14181798159A171A170F3007
:100270009100A001A101A201A301A401A501A60171
:10028000A701A801A901AA01AB01A0309300303059
:10029000950094019117A012A312A612A9162B1370
:1002A000A911AB12A812A512A21208003F3021001A
:1002B0009E0023008C018D018F01900122008F127E
:1002C00021008F120F1695138D1724008D17220011
:1002D0000C128C1121000C128C110D153B302000DA
:1002E0009C00E3309B001C11210091102000911014
:1002F000703098003C309700B03096001814210000
:1003000011142000111021008E170E172630230023
:100310009E0090309D0019309B0021009116200016
:1003200091120B178B17080032302000D400D50132
:100330000330E0001330A0009130A100C4308E31B2
:100340002A268031FA30A0009030A100B5308E31DD
:100350002A26F9010800A201A20A0530A100A10382
:100360002108FF3A0319DA2921008D1022008D108F
:100370009F302000A000A00BBB29BE2921008D14B6
:100380008B1318302000A000A00BC429C72900300F
:1003900020008D180130A2008B179F30A000A00B09
:1003A000CF29D22920008D18D729A201A20AA2089C
:1003B000031DAF2922080800242AEE2180310038CD
:1003C000031DE529E701E70A2B22E501DC01DD0138
:1003D0007030DA001730DB00E8010800A7012708B9
:1003E000663E8600870127088D31EC25803181002B
:1003F0002000A70A02302702031CEF29A001A00A4F
:10040000A10167300B228031A700A70A66082706E2
:10041000031901340034A400A501A6012608A20096
:10042000A30121082302031D172A20082202031812
:10043000222A26082407A200860087010108A507B2
:10044000A60A0E2A2508080021008F130F13220088
:100450008F170F170800A001A00AA10167300B2217
:10046000E600E60AA7012708663E86008701010824
:10047000A00027088E31D42680312000A70A023040
:10048000270203180800332A8D1B08001A30C90000
:10049000F830C800C80B4A2AC90B4A2A6400200059
:1004A0008D1B080000308F2296302000A000A10193
:1004B0008A31C422823101308F228831DF2082319B
:1004C00020005708F03A5604031D6F2A22000C1230
:1004D0008C152000E201E20A10248231812AE20117
:1004E0008B31132382312000620803197B2A2200FA
:1004F0000C128C156C2A22000C168C1102308F22E3
:100500008231200062080319812A1430A000A10161
:100510008A31C4228231083022008C06812A2000D0
:10052000A000A008031DB92AFF30E900EA00EB0093
:1005300007238231121E9A2AA016121E9D2AA31684
:10054000121EA02AA616121EA32AA916121EA62A39
:100550002B17121EA92AA915121EAC2AAB16121EA1
:10056000AF2AA816121EB22AA516121EB52AA21666
:100570000800200BDF2AE901EA01EB0107238231A1
:10058000121EC02AA012121EC32AA312121EC62AAD
:10059000A612121EC92AA912121ECC2A2B13121E31
:1005A000CF2AA911121ED22AAB12121ED52AA812C6
:1005B000121ED82AA512121EDB2AA2120800200839
:1005C000023A031D08007730E900EA00EB00072338
:1005D0008231121EE92AA012121EEC2AA312121E48
:1005E000EF2AA612121EF22AA912121EF52A2B13A6
:1005F000121EF82AA911121EFB2AAB12121EFE2A85
:10060000A812121E012BA512121ADD2A042B20009B
:10061000691C0F2B2F00121E0A2BA217132B2F0061
:10062000121E0F2BA2132000E91C1B2B2F00121EE1
:10063000162BA5171F2B2F00121E1B2BA5132000F6
:10064000691D272B2F00121E222BA8172B2B2F00E2
:10065000121E272BA8132000E91D332B2F00121E7A
:100660002E2BAB17372B2F00121E332BAB13200072
:10067000691E3F2B2F00121E3A2B2817432B2F00E9
:10068000121E3F2B28132000E91E4B2B2F00121E99
:10069000462B22174F2B2F00121E4B2B221320000C
:1006A000691F572B2F00121E522B25175B2B2F0073
:1006B000121E572B251320006A1C632B2F00121EBD
:1006C0005E2B2017672B2F00121E632B2013200098
:1006D000EA1C6F2B2F00121E6A2B2317732B2F007F
:1006E000121E6F2B231320006A1D7B2B2F00121E5E
:1006F000762B26177F2B2F00121E7B2B2613200014
:10070000EA1D872B2F00121E822B29178B2B2F00FF
:10071000121E872B291320006A1E932B2F00121EF6
:100720008E2BA615972B2F00121E932BA61120009F
:10073000EA1E9F2B2F00121E9A2BA015A32B2F0011
:10074000121E9F2BA01120006A1FAB2B2F00121E20
:10075000A62BA315AF2B2F00121EAB2BA31120002D
:10076000EA1FB72B2F00121EB22B2B14BB2B2F000E
:10077000121EB72B2B1020006B1CC32B2F00121E38
:10078000BE2BA115C72B2F00121EC32BA1112000B9
:10079000EB1CCF2B2F00121ECA2BA415D32B2F001E
:1007A000121ECF2BA41120006B1DDB2B2F00121E5D
:1007B000D62BA715DF2B2F00121EDB2BA711200035
:1007C000EB1DE72B2F00121EE22BAA15EB2B2F009F
:1007D000121EE72BAA1120006B1EF32B2F00121EF6
:1007E000EE2B2814F72B2F00121EF32B28102000BD
:1007F000EB1EFF2B2F00121EFA2B2214032C2F00AE
:10080000121EFF2B221020006B1F0B2C2F00121E1C
:10081000062C251408002F00121E0B2C2510080092
:100820002F00121E102CA912121E142CA81679309B
:100830002000E9000A30A00062088F315F27823172
:1008400030240A30A00062088F3192278231013EA5
:10085000840090300318013E85000008EB00072B50
:10086000013E840090300318013E85000008EA0034
:100870000800A3000230A400A501A4032408FF3A45
:1008800003196D2C8F31D827843190307124843135
:1008900092248431003A031D3D2C230871248431B5
:1008A00092248431003A031D3D2C8F31D8278431A6
:1008B00091307124843192248431003A031D3D2CFF
:1008C000A6248431DF00C6248431A6248431DE00CE
:1008D000D22484312000A501A50AD92420002508AE
:1008E00008002000A000A20122008F132000200891
:1008F000A1008030A105A108031D812C22000F1347
:10090000832C22000F172000A035640022008F17CF
:1009100064002000A20A08302202031C742C22006A
:100920008F13080021000F1722008F13640022008C
:100930008F176400003020000F1B0130A000220040
:100940008F1321000F1320002008080021000F172B
:10095000640022008F132000A001A1016400220086
:100960008F1764002000A0350F1B201464002200A4
:100970008F1364002000A10A08302102031CAE2C52
:1009800021000F13640020002008080022000F132C
:10099000640022008F17640022008F13640022007D
:1009A0000F17080022008F170F17640022008F1303
:1009B000080022008F130F13640022008F176400B9
:1009C00022000F170800F500FA180800790803192B
:1009D000F02C75087906031DF02CFB01802508001A
:1009E0007A1CFD2C750817258431031CF92CFB019A
:1009F000FA2C80257A1DFB01080075080925843131
:100A0000031C08007A147508172584310318ED2C8F
:100A1000EE2CF100F0017F3071020318152D21300A
:100A20007102031C152DF001F00A700C0800F20091
:100A30007B088C3EF300213003182230F400730849
:100A400086007408870072088100FB0A64307B020C
:100A50000800B301B301FA107A105D08D3005C08F6
:100A6000D200FB017A1580258C30AD002130AE001C
:100A7000C430AF00B0018A31D82284312E08B500CD
:100A80002D08B40035040319482DB301B30A5B2DBA
:100A90008C30AD002130AE00B530AF00B0018A31EE
:100AA000D82284312E08B5002D08B400350403196E
:100AB0005D2D0230B300FA146A2D52085C02B100B9
:100AC00053085D3BB2005502031D682D31085402E6
:100AD0000318342D7A111330A0009130A100C430D6
:100AE0008E312A268431FA30A0009030A100B53032
:100AF0008E312A26F9013230D400D501330808009E
:100B00007B088C3E8600213003182230870081014B
:100B1000080026088600270887000108203A031DE0
:100B2000952DA60A0319A70A892D260886002708ED
:100B300087000108093A0319912DAD01AE01AC01FE
:100B4000260886002708870001082D3A031DAA2DD4
:100B5000AC0AD72D260886002708870001082B3A03
:100B60000319D72D26088600270887000108EF25DE
:100B70008531031CDB2D2608860027088700010825
:100B8000A800A9012E08A1002D08A0000A30A2008B
:100B9000A301FD25853128082007AA002908213D49
:100BA000AB002A08D03EAD00FF302B3DAE00A60AB8
:100BB0000319A70AB22D2C080319EA2D2D09A80044
:100BC0002E09A900A80A0319A90A2808A6002908BD
:100BD000A70008002E08A7002D08A6000800A10005
:100BE000A0013A3021020318FB2D30302102031CF2
:100BF000FB2DA001A00A200C0800A401A501201CC7
:100C0000052E2208A4072308A53DA235A30DA13671
:100C1000A00C21082004031DFF2D2508A100240895
:100C2000A00008006400800101310130FE020030A4
:100C3000FF3B7F087E0403190034132EFF3FFF3F64
:10101000FF3FFF3FFF3F8C3084002130850064306C
:10102000FE000030FF01863112268831F701F801F9
:10103000F901FA01FB014E308400003085001B30BD
:10104000FE000030FF00863112268831A030840077
:10105000003085003C30FE000030FF008631122653
:10106000883120308400013085001830FE000030C7
:10107000FF008631122688314030E900EA00EB009B
:10108000EC00ED00EE00200045288031E82088319A
:10109000FA30A000A101C4226515823144228831B2
:1010A000DF20883113238831200065115D08D900C5
:1010B0005C08D80020000D1970281A30CB00F830D9
:1010C000CA00CA0B6128CB0B6128640020000D19EF
:1010D00070286514DF2088311323883120006510C3
:1010E00077085C02CA0078085D3BCB0000304B02F9
:1010F000153003194A02031C86285D08F8005C08B5
:10110000F7002F00121E81282030AB06200058085F
:101110005C02CA0059085D3BCB005B02031D9228AC
:101120004A085A020318DA285D08D9005C08D8007A
:10113000DF20883120006435203E860001308700A2
:101140005608C03F5708C13FE40A0C306402031C34
:10115000DA28132388312000E40162080319D72814
:101160006808FF3A031DB528E8010C30A0006808A4
:101170001E268831CC001030CC07CD014D08203E12
:101180008600013087000108A0004C084D07D426D6
:1011900088312000CD0A18304D02031CBE28E80A11
:1011A0000A306802031CDA28E515E801DA28FF3066
:1011B000E800E5112F00911E5A2891125A282000AC
:1011C000E51C09290530AC00AC0803190229E22707
:1011D0008831003A0319EF282000AC03E4283230AC
:1011E000A000A101C422013080312C2088310038B8
:1011F000031DEC28210053082000D60021005408CC
:101200002000D700AC08031D2729D601F030D700F5
:101210002729E317AA278831013A031D0529193028
:10122000A000A101C4220030843139248831013A60
:10123000031D05295F08D7005E08D600D60ED70E1D
:101240000F30D6055708F039D6040F30D705852E54
:10125000E2015F218831620803193A29B830A00001
:101260000B30A100C4228831E2015F21883162087D
:10127000031D08004630B1009030B2005222883180
:10128000013A031946292330E2000800E001E00A90
:101290005830D4000230D5002230B1009030B20076
:1012A00052228831013A031D43293230A000A101A6
:1012B000C42288315523C600460B65160800F02766
:1012C00088310F30B1009130B20052228831013A9A
:1012D00003196D290330E2000800EE30B1009030B0
:1012E000B20052228831013A031979290C30E20008
:1012F00008000A30BE00BE0803198E29D630B1009E
:101300009030B20052228831013A03198E2996306A
:10131000A000A101C4228831BE037B29BE08031DA1
:1013200094290430E20008000A30BE009D29BE0363
:101330009630A000A101C4228831BE080319D72924
:10134000B130B1009030B20052228831013A031D11
:101350009D298C30AD002130AE000A30AF009130B5
:10136000B000D82288312E08BD002D08BC003D04F5
:1013700003199729BB013B08A03E860087013B0863
:101380003C07B9003D080318890ABB1B8903BA0052
:101390003908053E840000303A3D85000008810090
:1013A000BB0A0F303B02031CBB292100AF01643094
:1013B0002000BE00FF30E100BE080319192ADF300B
:1013C000B1009030B20052228831013A031DDC296D
:1013D0008C30AD002130AE00F430AF009030B00062
:1013E000D82288312E08BD002D08BC003D04031909
:1013F000122A3C08053EB90000303D3DBA003908CC
:10140000A6003A08A7008531892588312608E10021
:1014100077278831200061080319122A6108633A8E
:10142000031D192ABE039630A000A101C4228831F1
:10143000DC29BE08031D232A6108FF3A0319232A69
:101440000F30E20008001430BE00BE0803194C2A19
:101450009B30B1009030B20052228831013A03191A
:10146000342A1030E20008008C30AD002130AE008C
:10147000A630AF009030B000D82288312E08BD00D1
:101480002D08BC003D04031D4C2A9630A000A1018C
:10149000C4228831BE03252ABE08031D080005307A
:1014A000E2000800B601B7016008B500B801B50850
:1014B0000319AF2A3208A2003108A1000D26883195
:1014C0001630A1009130A2000D26FA107A105D08A6
:1014D000D3005C08D200FB017A1585318025883164
:1014E0008C30AD002130AE00C430AF00B001D82246
:1014F00088312E08B7002D08B60037040319832A57
:10150000B801B80A952A8C30AD002130AE00B53054
:10151000AF00B001D82288312E08B7002D08B600E0
:1015200037040319972A0230B800FA14A42A520883
:101530005C02B30053085D3BB4005502031DA22AB0
:10154000330854020318702A7A11380BA82AAF2ADC
:101550006430A000A101C4228831B503572A13309A
:10156000A0009130A100C4302A268831FA30A000B2
:101570009030A100B5302A26F9010330E000323066
:10158000D400D5013808080001302000A002003046
:10159000A13B200A0319210A031908001A30A300ED
:1015A000F830A200A20BD22AA30BD22A6400C42ACC
:1015B000052B2E08A7002D08A6003008A9002F082B
:1015C000A8003008A1002F08A000F02688312108CB
:1015D000AB002008AA000F2788312708260403192A
:1015E00008002E08A1002D08A000A00A0319A10AD6
:1015F0002F088400300885000008A200A3014727B7
:1016000088312108AE002008AD002E082D040319F2
:10161000102B2D0886002E0887008108031DD92A6B
:10162000AD01AE0108002F00121E132BA016121ED2
:10163000172BA616121E1A2BAB12121E1D2BA81248
:101640002000651C2A2B2F00121E232B2B17121E85
:10165000272BA91502302000C700382BC703852689
:101660008831B8302000A0000B30A100C42288319E
:10167000C7080319412BE201651228218831651A38
:101680002E2B2F00121E412BA012121E452BA6122C
:10169000121E482B2B13121E4B2BA911200062087F
:1016A0000319542B8431102C852EB601B60AB701CC
:1016B000B60803197C2D651D9F2B6E30A10090305C
:1016C000A2000D268831BB30A3009030A4009D25D8
:1016D0008831A030A300A4019D25883123307E25C8
:1016E00088312000E708031D792B0530A3009130D5
:1016F0007C2B0030A3009130A4009D258831570831
:10170000A1005608A000AD258831B801B90120001C
:1017100038084E3E8600870101087E25883120006A
:10172000B80A0319B90A3908803AFE0080307E02EF
:10173000031D9C2B0430380203184E2D872B651C8B
:10174000E32B6E30A1009030A2000D268831CD3001
:10175000A3009030A4009D258831A030A300A401EF
:101760009D25883123307E2588312000E708031D20
:10177000BD2B0530A3009130C02B0030A300913069
:10178000A4009D2588315708A1005608A000AD256A
:101790008831BA01BB0120003A084E3E860087011D
:1017A00001087E2588312000BA0A0319BB0A3B08CC
:1017B000803AFE0080307E02031DE02B04303A02A6
:1017C00003184E2DCB2B6808FF3A03194C2CE51D4E
:1017D000ED2B5D30A10090304F2C8E30A100903069
:1017E000A2000D2688311C30BE00BF01C50168086B
:1017F00045020318012C3C30BE070318BF0AC50A76
:10180000F72B3B30BE070318BF0A6430A000A101CC
:101810003F08A3003E08A20040268831210820048A
:1018200064300319202CA000A1013F08A3003E084A
:10183000A200402688312008303E032688316430DB
:101840002000A000A1013F08A3003E08A2006526D9
:1018500088312108BF002008BE000A30A000A10185
:101860003F08A3003E08A200402688312008303EF1
:10187000032688310A302000A000A1013F08A30000
:101880003E08A200652688312008303E03268831B4
:101890002C3003268831522C7E30A1009030A200DB
:1018A0000D268831C4302000A3009030A4009D256F
:1018B0008831A030A300A4019D25883123307E25E6
:1018C00088312000E708031D692C0530A300913002
:1018D0006C2C0030A3009130A4009D25883168084D
:1018E000FF3A03191A2DE51DE42C6808FF3EC500D8
:1018F0000A3045020318AD2CC3010C30A000450886
:101900001E268831C2001030C2074335C207420884
:10191000EC2588312000C000420AEC2588312000E7
:10192000C100A1004008A000AD258831C4014408D1
:101930004E3E8600870101087E2588312000C40ABA
:1019400004304402031C972C7C307E258831EB2721
:101950008831031C7D2CC503782C0930C50045084F
:10196000680203181A2DC3010C30A00045081E267A
:101970008831C2001030C2074335C2074208EC2547
:1019800088312000C000420AEC2588312000C100C7
:10199000A1004008A000AD258831C40144084E3E96
:1019A0008600870101087E2588312000C40A0430A2
:1019B0004402031CCE2C7C307E258831EB278831F5
:1019C000031CB42CC503AF2CC501680845020318DD
:1019D0001A2DC3010C30A00045081E268831C20014
:1019E0001030C2074335C2074208EC258831200079
:1019F000C000420AEC2588312000C100A100400847
:101A0000A000AD258831C40144084E3E8600870100
:101A100001087E2588312000C40A04304402031CDA
:101A2000042D7C307E258831EB278831031CEA2C7D
:101A3000C50AE52CC5010C30450203184E2D45356D
:101A4000203E860001308700403FA000413FA100BA
:101A5000AD258831BC01BD0120003C084E3E86000A
:101A6000870101087E2588312000BC0A0319BD0AC0
:101A70003D08803AFE0080307E02031D412D043077
:101A80003C02031C2C2D200045080B3A03194B2D5A
:101A90007C307E2588312000C50A1B2D23307E2511
:101AA000883140307E25883190302000D4000130CC
:101AB000D500E730A0009030A100C4302A2688313C
:101AC000FA30A0009030A100B5302A2688312B30A2
:101AD000F9001630A1009130A2000D26853129258C
:101AE0008831B7003708031D7C2D6430A000A101A8
:101AF000C4228831B603582B370808002000A10003
:101B0000210E0F39A2000A302202031C892D373022
:101B10008A2D3030A20722080326883120002108B0
:101B2000A2000F30A2050A302202031C992D373083
:101B30009A2D3030A2072208032E2308840024089F
:101B400085000008A500A508031908007E25883136
:101B50002000A30A0319A40A9D2D210E0F39A2000B
:101B60000A302202031CB82DF630A2074130B92DED
:101B70003030A2072208CE002108A2000F30A205B3
:101B80000A302202031CC82DF630A2074130C92DAD
:101B90003030A2072208CF00200E0F39A2000A30F1
:101BA0002202031CD72DF630A2074130D82D303049
:101BB000A2072208D0002008A2000F30A2050A3098
:101BC0002202031CEA2DF630A2074130A2072208A8
:101BD000D10008003030E62DA200640023009518E3
:101BE000ED2D20002208230091003F3095051514AB
:101BF0000310151803140030093D2000A000A101B6
:101C00002300130808002000A00023009E1C052EBE
:101C10002000200823009A000800210884002208E0
:101C200085000008A300A308031908002308032661
:101C300088312000A10A0319A20A0D2EA200A101D9
:101C400020082218A107A035A236A208031D202EC5
:101C500021080800A400A500250886008701A50A20
:101C60002108A3002008A200A00A0319A10A8400E9
:101C7000230885000008C03F8908031908002C2E9E
:101C8000A501A601210820040319602EA401A40ABD
:101C9000A11B4D2EA035A10D472EA535A60D21085F
:101CA0002302031D552E20082202031C5C2E20084F
:101CB000A2022108A33B2514A136A00CA40B4D2E93
:101CC0002608A1002508A000080021082004031907
:101CD000802EA401A40AA11B702EA035A10D6A2E8E
:101CE00021082302031D762E20082202031C7C2ECD
:101CF0002008A2022108A33BA136A00CA40B702E41
:101D00002308A1002208A00008005708F03A560452
:101D1000031D982E7930E9003F30EA000630EB00D1
:101D20002F00121E902EA816121E942EA912D22E2B
:101D30002F00121E982EA91620005708A60056083C
:101D4000A5000430A636A50C890BA22E2508A700F5
:101D50005608A8000F30A8052808123E84009030CD
:101D60000318013E85000008A8000A30A0002708DB
:101D70005F278831013E840090300318013E8500C2
:101D80000008E9000A30A000270892278431302497
:101D9000EA172808013E840090300318013E8500B0
:101DA0000008EB008331072BA10023009518D52EE6
:101DB0002000210823009100200020082300930028
:101DC0003F30950503108B1B03148B1315155530ED
:101DD0009600AA3096009514151103188B17080069
:101DE0002108A5002008A4002508A3002408A200BB
:101DF000A40A0319A50A84002308850000080038F6
:101E0000031DF42E20082402A2002108253BA30074
:101E10002208FF3EA000FF30233DA1000800013052
:101E2000AA020030AB3B2A0A03192B0A0319442FDC
:101E300026088600270887000108003A03192E2F7C
:101E400028088400290885000008AC0026088600C0
:101E50002708870001082C0603193D2F2608860055
:101E60002708870028088400290885000008010247
:101E7000A600A701031CA7030800A60A0319A70AC6
:101E8000A80A0319A90A0F2FA601A7010800200814
:101E9000860021088700010822060319080021088E
:101EA000A5002008A400A00A0319A10A860025089D
:101EB00087008108031D472FA001A1010800A10090
:101EC000A30120080319752FA201A20AA01B6A2FE3
:101ED000A035652FA33520082102031C722F20088E
:101EE000A1022314A036A20B6A2F230808000A308F
:101EF000A00061085F278831A5000A30A0006108B2
:101F00009227A6007330E900250884313024260882
:101F1000013E840090300318013E85000008EB006C
:101F20008331072BA2000830A300A4012208A100DE
:101F30000730A136890B992F24352104A400A2353E
:101F400020082402031CA62F2008A402A30B962F0E
:101F5000240808000230A300A401A3032308FF3AC9
:101F60000319D32FD82790308431712488318431DC
:101F700092248831003A031DAD2F01308431712441
:101F80008831843192248831003A031DAD2F6308D3
:101F9000843171248831843192248831003A031DC0
:101FA000AD2FA401A40A8431D924200024080800FC
:101FB00022000F178F17640022000F136400220005
:101FC0008F1308008131AB218831003A031D0134A1
:101FD00044308031B3282000C30A0C30430208008B
:101FE00022008F1605302000A000A101C4228831F4
:101FF00022008F12F4302000A0000130A100C42A7A
:1020000000343F3406345B344F3466346D347D34F1
:1020100007347F346F3477347C3439345E34793428
:102020007134503400340134013402340334033445
:1020300004340434053406340634073408340834D0
:1020400009340934413454342B344E3453344F342E
:1020500043344F343D3431342C34223477347734A4
:1020600077342E3477346C34773464346A346334A0
:1020700079342E3463346F346D3422342C3431345B
:10208000323431343234393400340034413454344D
:102090002B344E3453344F34433452343D34533460
:1020A00054345234453441344D342C3436342C3489
:1020B00030342C34313400340034413454342B3433
:1020C0004E3453344F34533444343D3431342C344F
:1020D0003634383437342C340034003441345434FA
:1020E0002B344E3453344F34533444343D34313430
:1020F0002C34333432342C340034003441345434EE
:102100002B344E3453344F34533444343D3431340F
:102110002C34383437342C340034003441345434C3
:102120002B344E3453344F34533444343D343134EF
:102130002C3400340034413454342B34433445348B
:102140005234453447343F34003400342B34433464
:1021500045345234453447343A3430342C343134F5
:102160000034413454342B344E34433443344934F2
:102170004434003400344034233470347434233411
:102180003134233400340034403423347034743414
:102190002334323423340034003440342334703454
:1021A000743423343334233400340034413454340D
:1021B0002B34433449344D344934003400344134F1
:1021C00054342B34433453345134003400344E34BB
:1021D00053344F344E344D34493400344134543444
:1021E00045343134003400342B34433453345134C7
:1021F0003A3400344534523452344F34523400347B
:102200003134303423340034003436343034233421
:1022100000340034383439343834363400344134FE
:102220005434003400344F344B3400340D34003413
:102230000034FF3FFF3FFF3FFF3FFF3FFF3FFF3FB8
:00000001FF
